:1000C600AF82A2AFE433FEC2AF90172CEFF0EE245E
:1000D600FF92AF22AF827E00EF30E0027E04EF3067
:1000E600E103430601EF30E2034306028E8202007B
:1000F600C6A2AFE433FFC2AF90172CE0FEEF24FF99
:1001060092AF8E82221200F7AF8290172DE0B507CC
:1001160001228F82C0071241CED00790172DEFF033
:0101260022B6
:02D3C900000062
:10009A009002327401F07402A3F0900246E4F0A3D5
:0300AA00F0A3F0D0
:10012700AD82AE83AFF012AD14FC0DBD00010E8D94
:10013700828E838FF012AD14FFE4FDFEEC4205EED4
:1001470042078D828F8322C00D85810DC082C083B7
:10015700C0F0E5812404F581A80D0886820886830E
:100167000886F012AD14FCE50D2404F8A604087601
:1001770000087600087600A80D08740126FDE4083B
:1001870036FE0886078D828E838FF012AD14FD7FB1
:10019700007E008E048F068D077D00E50D2404F890
:1001A700ED46F6EF0846F6EE0846F6EC0846F6A8E2
:1001B7000D08740226FAE40836FB0886078A828B44
:1001C700838FF012AD14FA7F008F058A067A00E557
:1001D7000D2404F8EA46F6EF0846F6EE0846F6ED73
:1001E7000846F6A80D08740326FBE40836FC0886C3
:1001F700078B828C838FF012AD14FB7F007E008B00
:10020700057B00E50D2404F8E6420308E6420708EB
:10021700E6420608E642058B828F838EF0ED850D58
:1002270081D00D22AD82AE83AFF074022DFAE43E89
:10023700FB8F048A828B838CF012AD14FCBC010205
:10024700800ABC02028026BC046D804574052DFA25
:10025700E43EFB8F048A828B838CF012AD14F97A0B
:10026700007B007C0089828A838BF0EC2274052D49
:10027700FAE43EFB8F048A828B838CF012AD14FA6A
:10028700A312AD14F97B007C008A8289838BF0EC82
:100297002274052DFDE43EFE8D828E838FF012AD14
:1002A70014FDA312AD14FEA312AD14FFA312AD14D7
:1002B7008D828E838FF022900000E4F5F022AD82CC
:1002C700AE83AFF074022DFAE43EFB8F048A828B73
:1002D700838CF012AD14FCBC0102800ABC020280C0
:1002E70024BC046A804274052DFAE43EFB8F048A1D
:1002F700828B838CF012AD14F93395E0FAFB898277
:100307008A838BF02274052DFAE43EFB8F048A82E0
:100317008B838CF012AD14FAA312AD14F93395E068
:10032700FB8A8289838BF02274052DFDE43EFE8DC6
:10033700828E838FF012AD14FDA312AD14FEA312AB
:10034700AD14FFA312AD148D828E838FF02290001F
:1003570000E4F5F022C00DE581F50D240CF581AD23
:1003670082AE83AFF0E50D24FBF8E6C39DFB08E6FC
:100377009EFCC3E49B74808CF063F08095F0400989
:1003870090000075F0000207358D828E838FF01282
:10039700AD14FCE50D240AF874012DF6E43E08F6C9
:1003A70008A607900200ECF0E50D24F8F8A90D095E
:1003B700E6F708E609F708E609F7A80D0874032623
:1003C700FFE40836FE088605EC0303543FFC53049C
:1003D700038F828E838DF0EC12A768A80D08740432
:1003E70026FFE40836FE088605900200E0C4540F95
:1003F700FC53040F8F828E838DF0EC12A768BC0F1D
:1004070002800302054DA80D0886820886830886A8
:10041700F0740112A768A3E412A768E50D24FBF89E
:10042700E50D240AF9E6C397FB08E60997FCC3EB39
:100437009402EC64809480500990000075F00002EB
:100447000735A80D08E50D2404F9740226F7E4081A
:100457003609F708E609F7E50D240AF886820886C3
:10046700830886F012AD14FCE50D240AF8E50D2487
:1004770007F9740126F7E4083609F708E609F7E5EE
:100487000D2404F886820886830886F0EC12A76894
:10049700E50D2407F886820886830886F012AD14D6
:1004A700FCE50D2407F806B6000208068F828E8346
:1004B7008DF0EC12A768E50D24FBF8E50D2407F98C
:1004C700E6C397FF08E60997FEE50D2404F8868240
:1004D7000886830886F012AD14FA7C00C3EF9AEE03
:1004E70064808CF063F08095F0500990000075F0FF
:1004F70000020735A80D08740526FAE40836FB083C
:1005070086048A828B838CF0E50D2407F8E612A710
:1005170068A308E612A768A308E612A768E50D24F2
:1005270004F886820886830886F012AD14FCE50D70
:100537002407F8EC26FCE40836FB0886028C828B3D
:10054700838AF0020735A80D088682088683088605
:10055700F0E412A768A312A768A80D08740226FA88
:10056700E40836FB088604900200E05403FF8A8201
:100577008B838CF012A76824FC5003020735EF2FFA
:100587002F90058C730205980205A802061B020628
:1005970098E50D240AF886820886830886F0020704
:1005A70035E50D24FBF8E50D240AF9E6C397FE08A7
:1005B700E60997FFC3EE9401EF6480948050099099
:1005C700000075F000020735A80D08740526FCE445
:1005D7000836FB088602E50D240AF886820886831A
:1005E7000886F0E50D2404F912AD14F7E50D240A89
:1005F700F8740126FDE40836FE0886078C828B8393
:100607008AF0E50D2404F8E612A7688D828E838FA1
:10061700F0020735E50D24FBF8E50D240AF9E6C3DA
:1006270097FE08E60997FFC3EE9402EF6480948073
:10063700500990000075F000020735A80D087405F1
:1006470026FDE40836FC088603E50D240AF88682B1
:100657000886830886F0C005C004C003120127AED0
:1006670082AF83D003D004D0058D828C838BF0EECC
:1006770012A768A3EF12A768E50D240AF8740226EB
:10068700FDE40836FE0886078D828E838FF0020709
:10069700358A828B838CF012AD14FF0F8A828B838D
:1006A7008CF0EF12A768E50D24FBF8E50D240AF995
:1006B700E6C397FE08E60997FFC3EE9404EF64804C
:1006C7009480500890000075F0008062A80D08E53E
:1006D7000D2407F9740526F7E4083609F708E60933
:1006E700F7E50D240AF886820886830886F012014A
:1006F7004EAA82AB83ACF0FFE50D2407F88682088B
:1007070086830886F0EA12A768A3EB12A768A3EC12
:1007170012A768A3EF12A768E50D240AF874042648
:10072700FDE40836FE0886078D828E838FF0850DDF
:1007370081D00D22C00DE581F50D2416F581AD821E
:10074700AE83AFF0E50D2412F8760074172DFDE4A3
:100757003EFEE50D2413F87600E50D2413F8B612D6
:10076700004003020A4E8D828E838FF012AD14FA79
:10077700A312AD14FBA312AD14FCC007C006C0053D
:10078700E50D2413F8E6C0E08A828B838CF0129C77
:10079700FCAA82AB83ACF01581D005D006D007E563
:1007A7000D2414F8A60208A60308A604E50D2414D0
:1007B700F8E608467003020A45C005C006C007E50B
:1007C7000D2414F8744726FAE40836FB0886078ACE
:1007D700828B838FF0E50D240CF812AD14F6A3126B
:1007E700AD1408F6A312AD1408F6E50D2414F87439
:1007F7000426FDE40836FE0886078D828E838FF077
:1008070012AD14FDA312AD14FEE50D2414F8868273
:100817000886830886F012AD14FBA312AD14FFE51A
:100827000D2413F886027C00C007C006C005C0056A
:10083700C006C003C007C002C0047432C0E074C061
:10084700C0E07480C0E012ACDBE58124F7F581D00D
:1008570005D006D007E50D2412F8A90D09E6F7D053
:1008670007D006D005E50D240CF8E608467003020C
:100877000A3BC005C006C007E50D240CF874012625
:10088700FAE40836FB0886048A828B838CF012AD63
:1008970014FAA312AD14FBA312AD14FCE50D240F3B
:1008A700F8A60208A60308A604E50D240FF87409A4
:1008B70026FDE40836FE0886078D828E838FF012A8
:1008C700AD14FD7F00E50D240FF8740826FBE4083E
:1008D70036FC0886068B828C838EF012AD14FBA83B
:1008E7000D0808A603087600E50D240FF874042602
:1008F700FAE40836FC0886068A828C838EF012ADED
:1009070014FAE50D2404F8A602087600E50D240F75
:10091700F8740326FBE40836FC0886068B828C8372
:100927008EF012AD14FBE50D2406F8A60308760039
:10093700E50D240FF8740626FAE40836FC08860647
:100947008A828C838EF0E50D2408F812AD14F6A385
:1009570012AD1408F6E50D240FF8740526FBE4081C
:1009670036FC0886068B828C838EF012AD14FBE56D
:100977000D240AF8A603087600E50D240FF8740184
:1009870026FAE40836FC0886068A828C838EF012E3
:10099700AD14FAA312AD14FCC007C006C005C0050C
:1009A700C007A80D0808E6C0E008E6C0E0E50D248A
:1009B70004F8E6C0E008E6C0E0E50D2406F8E6C066
:1009C700E008E6C0E0E50D2408F8E6C0E008E6C068
:1009D700E0E50D240AF8E6C0E008E6C0E0C002C082
:1009E700047454C0E074C0C0E07480C0E012ACDB93
:1009F700E58124EFF581D005D006D007E50D240C5D
:100A0700F8740426FDE40836FE0886078D828E8377
:100A17008FF0E50D240CF812AD14F6A312AD1408EF
:100A2700F6A312AD1408F6A80D0806D007D006D015
:100A37000502086CA80D08E50D2412F9E6F7E50D87
:100A47002413F806020760E50D2412F88682850D47
:100A570081D00D22C00DE581F50D240AF581AD8207
:100A6700AE83AFF090023DE4F0A3F0A3F09002173D
:100A7700F0A3F0900219F0A3F090021BF0A3F090FE
:100A87000229F090022AF090022BF0C007C006C09E
:100A9700057428C0E0E4C0E0C0E0900201F5F01260
:100AA700AC3B158115811581D005D006D007900282
:100AB7001374FFF0A3F0E4A3F0A3F090020F14F077
:100AC700A3F0E4A3F0A3F090022CEDF0EEA3F0EF77
:100AD700A3F0E50D24FCF890022FE62DF008E63E82
:100AE700A3F0EFA3F090021DE4F0E50D24F9F8E57B
:100AF7000D2404F9E6F708E609F708E609F7E50D16
:100B07002404F8A90D09E6F708E609F708E609F746
:100B170090022CE0FAA3E0FBA3E0FC7434C0E0747D
:100B270002C0E0E4C0E090022FE0C0E0A3E0C0E034
:100B3700A3E0C0E08A828B838CF012035CAA82ABAD
:100B470083ACF0E58124FAF58190022CEAF0EBA35F
:100B5700F0ECA3F0EA4B70030211FC900234E0FBC7
:100B6700A3E0FC4B60030211FC900237E0FC600F2E
:100B7700BC0103020EC9BC02030211200211C79077
:100B87000238E0FCBC08028003020E3690021BE02C
:100B9700FAA3E0FBBA0105BB00028003020DA49093
:100BA7000219E0FAA3E0FBBA0405BB000280339008
:100BB7000219E0FAA3E0FBBA0505BB000280239007
:100BC7000219E0FAA3E0FBBA0605BB000280139006
:100BD7000219E0FAA3E0FBBA0205BB000280030298
:100BE7000DA490023DE0F5F0A3E045F06003020D8F
:100BF70005E50D2404F8741726FCE40836FB08867F
:100C070002900232E0FDA3E0FE74072DF582E43E78
:100C1700F583E50D2407F8E0F68C828B838AF012C2
:100C2700AD14FDA312AD14FEA312AD14FFC004C092
:100C370003C002E50D2407F8E6C0E0744AC0E0E40B
:100C4700C0E08D828E838FF0129C0DAD82AE83AF94
:100C5700F0158115811581D002D003D0048C828BC9
:100C6700838AF0ED12A768A3EE12A768A3EF12A775
:100C7700680DBD00010E8D828E838FF012AD14FDBD
:100C8700A312AD14FEA312AD14FF90023DEDF0EEDA
:100C9700A3F0EFA3F074022DFDE43EFE90021BE0EB
:100CA700FAA3E0FB8D828E838FF0EA12A768A3EB8D
:100CB70012A76890023DE0FDA3E0FEA3E0FF9002CB
:100CC70019E0FAA3E0FB8D828E838FF0EA12A76802
:100CD700A3EB12A768900219E0FEA3E0FFBE04058C
:100CE700BF0002800E900219E0FEA3E0FFBE050ED2
:100CF700BF000B90021DE0FF0F90021DEFF0900266
:100D07003475F00012022BAB82AD83AEF0FFEB20FF
:100D1700E103020D94900228E06012E50D2404F827
:100D270086820886830886F01299AB807090020F3E
:100D3700E0FBA3E0FDA3E0FEA3E0FFBBFF0BBDFFCD
:100D470008BE0005BF00028054900213E0FBA3E039
:100D5700FDA3E0FEA3E0FFBBFF0BBDFF08BE000540
:100D6700BF00028038900232E0FEA3E0FF74082E35
:100D7700F582E43FF583E0FFBF0122E50D2404F887
:100D870086820886830886F01297DA8010E50D249C
:100D970004F886820886830886F0129B6290021701
:100DA700E50D2408F8E0F6A3E008F6900232E0FB30
:100DB700A3E0FD74082BF582E43DF583E0FA7F009C
:100DC70074092BF582E43DF583E0FE7D00C006C083
:100DD700058A828F8312A8F0AE82AF8315811581B1
:100DE700E50D2408F8EE26FEEF0836FF900217EE11
:100DF700F0EFA3F090023DE0FDA3E0FEA3E0FF903B
:100E0700023DE0F5F0A3E045F07003020E9F740485
:100E17002DFDE43EFE900217E0FAA3E0FB8D828EE3
:100E2700838FF0EA12A768A3EB12A768020E9FBC94
:100E37000A4D90022BE02401F090023475F0001265
:100E4700022BAB82AD83AEF0FFBB014CBD0049BEA8
:100E57000046BF004390020BE0FEA3E0FF9002199B
:100E6700EEF0EFA3F0900232E0FEA3E0FF8E828F58
:100E770083E0FE7F0090021BEEF0EFA3F08019BC29
:100E87000C1690022BE014F0E0700D900219E4F0BC
:100E9700A3F090021BF0A3F0900228E4F090020B5D
:100EA700F0A3F0A3F0A3F090021314F0A3F0E4A3CF
:100EB700F0A3F090020F14F0A3F0E4A3F0A3F00264
:100EC70011C7900238E0FF24F650030211C7EF2440
:100ED7000A83F582EF240E83F583E473F76D9B0095
:100EE70030C7C797F7C7100F0F10101111100E104A
:100EF700A80D08741626FDE40836FE0886078D82BD
:100F07008E838FF0740112A768900217E4F0A3F0A4
:100F1700900236E0FFE4C40354F8CFC403CF6FCF89
:100F270054F8CF6FFE900217EFF0EEA3F090023265
:100F3700E0FEA3E0FF74072EFEE43FFF9002347546
:100F4700F000C007C00612022BAA82AB83ACF0FDEB
:100F5700D006D0078E828F83EAF090023DE4F0A39B
:100F6700F0A3F00211C7900232E0FEA3E0FF0EBE2D
:100F770000010F90023475F000C007C0061202C5C9
:100F8700AA82AB83ACF0FDD006D0078E828F83EAAE
:100F9700F00211C7900232E0FEA3E0FF8E828F833A
:100FA700A3E030E72CE50D2408F874022EF6E43FA1
:100FB70008F690023475F0001202C5AA82AB83AC22
:100FC700F0FDE50D2408F88682088683EAF0021111
:100FD700C774022EFEE43FFF90023475F000C0078D
:100FE700C00612022BAA82AB83ACF0FDD006D00755
:100FF7008E828F83EAF00211C7900232E0FEA3E0EF
:10100700FF74032EFEE43FFF90023475F000C00723
:10101700C0061202C5AA82AB83ACF0FDD006D0078A
:101027008E828F83EAF00211C7900232E0FEA3E0BE
:10103700FF8E828F83A3A3A3E030E72CE50D24085E
:10104700F874042EF6E43F08F690023475F00012A7
:1010570002C5AA82AB83ACF0FDE50D2408F88682B1
:10106700088683EAF00211C774042EFEE43FFF905E
:10107700023475F000C007C00612022BAA82AB83A8
:10108700ACF0FDD006D0078E828F83EAF00211C73D
:10109700900232E0FEA3E0FF74082EFEE43FFF90CB
:1010A700023475F000C007C00612022BAA82AB8378
:1010B700ACF0FDD006D0078E828F83EAF00211C70D
:1010C700900232E0FEA3E0FF74092EFEE43FFF909A
:1010D700023475F000C007C00612022BAA82AB8348
:1010E700ACF0FDD006D0078E828F83EAF00211C7DD
:1010F700900232E0FEA3E0FF90023475F000C007D3
:10110700C00612022BAA82AB83ACF0FDD006D00733
:101117008E828F83EAF00211C7900238E0FF705C7D
:10112700900234F5F012022BAB82AC83ADF0FE9047
:10113700020BEBF0ECA3F0EDA3F0EEA3F090022886
:10114700E0FEBE0A0040030211C7EE241EFFE4348E
:1011570002FD90023475F000C007C00512022BAAE9
:1011670082AB83ACF0D005D0078F828D83EAF090F5
:101177000228E0FE0E900228EEF08044BF01209086
:10118700023475F00012022BAB82AC83ADF0FE90F7
:10119700020FEBF0ECA3F0EDA3F0EEA3F08021BF7C
:1011A700021E90023475F00012022BAC82AD83AEA2
:1011B700F0FF900213ECF0EDA3F0EEA3F0EFA3F035
:1011C70090022CE0FDA3E0FEA3E0FF90022FE0FADF
:1011D700A3E0FBA3E0FCC002C003C0048D828E83A2
:1011E7008FF01200131581158115816003020B170B
:1011F7007582018003758200850D81D00D22C00D97
:1012070085810DC082C083C0F0E5812408F581E5A2
:101217000D24FDF8E624ED5006758200021416E54C
:101227000D24FAF88602088603088604E50D2404CF
:10123700F874032AF6E43B08F608A604A80D087418
:101247000726FDE40836FE0886078D828E838FF019
:1012570012AD14FDE50D2404F886820886830886FE
:10126700F0ED12A768E50D2404F874022AF6E43BB2
:1012770008F608A604A80D08740426FDE40836FE3F
:101287000886078D828E838FF012AD14FDE50D243D
:1012970004F886820886830886F0ED12A768E50DB4
:1012A70024FDF8B612028003021413E50D2404F896
:1012B70074042AF6E43B08F608A604A80D08740887
:1012C70026FDE40836FE0886078D828E838FF0E5BB
:1012D7000D2407F812AD14F6A80D08740926FDE4CD
:1012E7000836FE0886078D828E838FF012AD14FDB7
:1012F700E50D2408F808A605187600E50D2407F87B
:1013070086077E00E50D2408F8E6420708E6420650
:10131700E50D2404F886820886830886F0EF12A775
:1013270068A3EE12A768E50D2404F874062AF6E40C
:101337003B08F608A604A80D08740A26FDE408363B
:10134700FE0886078D828E838FF0E50D2408F8123C
:10135700AD14F6A80D08740B26FDE40836FE0886C2
:10136700078D828E838FF012AD14FDE50D240AF8E8
:1013770008A605187600E50D2408F886077E00E51F
:101387000D240AF8E6420708E64206E50D2404F8AC
:1013970086820886830886F0EF12A768A3EE12A755
:1013A7006874082AFAE43BFBA80D08740C26FDE4D0
:1013B7000836FE0886078D828E838FF0E50D240A96
:1013C700F812AD14F6A80D08740D26FDE40836FED4
:1013D7000886078D828E838FF012AD14FDE50D24EC
:1013E70008F808A605187600E50D240AF886067F92
:1013F70000E50D2408F8E6420608E642078A828BD4
:10140700838CF0EE12A768A3EF12A7687582018597
:101417000D81D00D22C00D85810DC082C083C0F023
:10142700E581240FF581A80D08740226FAE4083631
:10143700FB0886048A828B838CF012AD14FAA80D00
:1014470008740326FBE40836FC0886078B828C8326
:101457008FF012AD14FFE4FBFEEA4203EE4207E50C
:101467000D24FCF8C3E69B08E69F500AE50D24FC13
:10147700F88603088607C003C007E50D24F9F8E5D9
:101487000D240EF9E6F708E609F708E609F7E50D72
:10149700240EF8E50D2404F9740C26F7E408360940
:1014A700F708E609F7A80D08740426FAE40836FBDE
:1014B7000886078A828B838FF012AD14FAE50D2414
:1014C70004F886820886830886F0EA12A768C37440
:1014D700049AD007D0035012E50D2404F886820839
:1014E70086830886F0740412A768C003C007A80D96
:1014F700088605088606088604A80D0886820886D9
:10150700830886F012AD149002402DF0E43EA3F05C
:10151700ECA3F0A80D0886820886830886F012AD32
:1015270014FFE50D2411F8A607087600D007D003AD
:10153700E50D2411F88602088606C3EA9BEE9F4054
:1015470003021A92C003C007900240E50D2407F872
:10155700E0F6A3E008F6A3E008F6E50D2407F88611
:1015670002088603088607900243EAF0EBA3F0EF30
:10157700A3F00ABA00010B8A828B838FF012AD1495
:10158700FEBE04028007D007D003021791E50D24A1
:1015970007F886020886030886078A068B058F04E4
:1015A700900246EEF0EDA3F0ECA3F074022EFAE4FD
:1015B7003DFB8C078A828B838FF0E50D240DF81293
:1015C700AD14F6E50D2404F886820886830886F0B4
:1015D70012AD14FFE50D240DF8C3E69FD007D00325
:1015E7004003021A92C003C00774052EFAE43DFBBC
:1015F7008C078A828B838FF012AD14FABA030280AC
:1016070007D007D003021A38E50D240EF8740D260B
:10161700FAE40836FB0886078A828B838FF012ADBF
:1016270014FCA312AD14FDA312AD14FEC007C00332
:10163700C002E50D240DF8E6C0E0741AC0E0E4C06E
:10164700E08C828D838EF0129C0DAC82AD83AEF060
:10165700158115811581D002D003D0078A828B832B
:101667008FF0EC12A768A3ED12A768A3EE12A76884
:101677000CBC00010D8C828D838EF012AD14FCA37F
:1016870012AD14FDA312AD14FE90024FECF0EDA3C2
:10169700F0EEA3F08C828D838EF0C007C003121C7E
:1016A700B4D003D007900246E0FDA3E0FEA3E0FF1D
:1016B70074032DFDE43EFE8D828E838FF012AD14F0
:1016C700D007D0036003021A38C003C00790024F47
:1016D700E0FCA3E0FDA3E0FE74052CFCE43DFD8CDB
:1016E700828D838EF0E412A76890024FE0FCA3E09E
:1016F700FDA3E0FE900246E0FAA3E0FBA3E0FF743F
:10170700052AFAE43BFB8A828B838FF012AD148C97
:10171700828D838EF012A76890024FE0FDA3E0FE52
:10172700A3E0FF74022DFDE43EFE900246E0FAA31B
:10173700E0FBA3E0FC74072AFAE43BFB8A828B8375
:101747008CF012AD148D828E838FF012A7689002F1
:101757004FE0FDA3E0FEA3E0FF0DBD00010E9002E8
:1017670046E0FAA3E0FBA3E0FC74062AFAE43BFB9D
:101777008A828B838CF012AD14FA8D828E838FF060
:1017870012A768D007D003021A38BE2102800302CD
:101797001839C003C007E50D2407F8860408860535
:1017A700088606900249ECF0EDA3F0EEA3F074066C
:1017B7002CFAE43DFB8E078A828B838FF012AD14DF
:1017C700FABA22028007D007D003021A3890024FD4
:1017D700E0FAA3E0FBA3E0FFE50D240AF874032A6F
:1017E700F6E43B08F608A60774072CFAE43DFB8EDF
:1017F700078A828B838FF012AD14FA74082CFCE4ED
:101807003DFD8C828D838EF012AD14FFE4FCFEEA61
:101817004204EE4207E50D240AF88682088683080B
:1018270086F0EC12A768A3EF12A768D007D00302CF
:101837001A38BE05028003021A38E50D2407F88618
:101847000408860508860690024CECF0EDA3F0EE3E
:10185700A3F090024FE0FCA3E0FDA3E0FEE50D241A
:101867000AF874052CF6E43D08F608A606E50D24EB
:101877000AF886820886830886F012AD14FABA043D
:10188700004003021A38C003C007900246E0FBA3DA
:10189700E0FEA3E0FF74032BFBE43EFE8B828E8306
:1018A7008FF012AD14D007D0036003021A38C003BB
:1018B700C0078A057E000AE50D240AF88682088695
:1018C700830886F0EA12A76890024FE0FAA3E0FCCB
:1018D700A3E0FF74062AFAE43CFCE50D240AF8EDC0
:1018E7002DF6EE3308F618E626F608E633F6E50D8C
:1018F700240AF8E62AFA08E63CFC90024CE0FBA32F
:10190700E0FDA3E0FE74022BFBE43DFD8B828D839B
:101917008EF012AD14FB53037F8A828C838FF0EB1A
:1019270012A76890024CE0FDA3E0FEA3E0FF74025B
:101937002DFDE43EFE8D828E838FF012AD14D0070D
:10194700D00330E73590024FE0FCA3E0FDA3E0FEB3
:1019570074062CFCE43DFDE50D240AF8E62CFC0892
:10196700E63DFD74032CFCE43DFD8C828D838EF0F7
:1019770012AD14440112A768803390024FE0FCA314
:10198700E0FDA3E0FE74062CFCE43DFDE50D240A12
:10199700F8E62CFC08E63DFD74032CFCE43DFD8CC9
:1019A700828D838EF012AD1454FE12A768C003C057
:1019B7000790024FE0FCA3E0FDA3E0FE74062CFCB9
:1019C700E43DFDE50D240AF8E62CFC08E63DFDE5BF
:1019D7000D240AF874012CF6E43D08F608A60690D3
:1019E700024CE0FAA3E0FBA3E0FF74042AFCE43B0B
:1019F700FD8F068C828D838EF012AD14FC74052A40
:101A0700FAE43BFB8A828B838FF012AD14FFE4FA72
:101A1700FEEC4202EE4207E50D240AF886820886AC
:101A2700830886F0EA12A768A3EF12A768D007D049
:101A370003C003C007900243E0FCA3E0FDA3E0FE60
:101A47008C828D838EF0E50D240DF812AD14F6907F
:101A57000240E0FAA3E0FBA3E0FFE50D240DF890B8
:101A67000240E62AF0E43BA3F0EFA3F08C828D83DB
:101A77008EF012AD14FC7F00E50D2411F8EC26F66C
:101A8700EF0836F6D007D003021537758201850DAA
:041A970081D00D22CB
:10C032005265706F72742025782C20757361676564
:10C042002025782C206C656E6774682025753A204F
:10C052000A0073746172746269742025752C2069F8
:10C0620074202568782C2069702025782C2063683C
:10C07200616E202568782C20636F6E7420256878A5
:10C082002C2073697A65202568782C20636F756E81
:07C0920074202568780A0004
:0600AD007508007509F45E
:101A9B00AE82AF83EE4F602D05A105A105A105A177
:101AAB0005A105A105A105A105A105A105A105A1FB
:101ABB0005A105A105A105A105A105A105A11EBEB5
:101ACB00FF011F80CF22AE82AF8390172EE4F0A3CD
:101ADB00F0EE4F60159003E8C007C006121A9BD0BA
:101AEB0006D0071EBEFF011F80E790172EE4F0A360
:101AFB00F022AE82AF8310990280FB8E998E828F7B
:101B0B008322AE82AF839017A5E07003021BBCC388
:101B1B00EE9441EF648094809200403BC3745A9ED4
:101B2B0074808FF063F08095F0402C90F00AE49372
:101B3B0070067CB67DCB80047CEF7DC87B808C826D
:101B4B008D838BF0C007C006C0201269B7E582D029
:101B5B0020D006D00760D48E058D82C007C006C08A
:101B6B0005C020126A85D020D0058D82C020126A54
:101B7B00F8D020D006D007200037C3745A9E74804B
:101B8B008FF063F08095F0402890F00AE493700694
:101B9B007CD17DCC80047C5F7DCA7B808C828D83E5
:101BAB008BF0C007C0061269B7E582D006D007607C
:101BBB00D88E828F83229000002275BAF075C602F0
:101BCB0075BB007590F075BC2043C60475BD0075E0
:101BDB00A02075C20075C34075C0002275A1557554
:0C1BEB00A1AA53B3E043B30675B2D822A0
:03D3CB000000005F
:101BF700C00D85810DAD82AE83AFF0900452E4F045
:101C0700A3F0900452E0FBA3E0FCE50D24FCF8C32D
:101C1700EB96EC08964003021C9CEB2DFBEC3EFC7C
:101C27008F028B828C838AF012AD14FB7C00C00775
:101C3700C006C005C003C0047499C0E074C0C0E00A
:101C47007480C0E012ACDBE58124FBF581D005D0C0
:101C570006D007900452E0FBA3E053030F7C00BBC0
:101C67000F24BC0021C007C006C005749FC0E074E4
:101C7700C0C0E07480C0E012ACDB1581158115810E
:101C8700D005D006D007900452E02401F0A3E03439
:101C970000F0021C0974A1C0E074C0C0E07480C0E9
:101CA700E012ACDB158115811581D00D22C00DE541
:101CB70081F50D2405F581AD82AE83AFF08D028EDF
:101CC700038F04C007C006C005741AC0E0E4C0E073
:101CD700C0E08A828B838CF012AC3B15811581158D
:101CE70081D005D006D0078D828E838FF0E412A7AE
:101CF7006874022DFAE43EFB8F048A828B838CF092
:101D0700E412A76874032DFAE43EFB8F048A828BE2
:101D1700838CF0E412A768A312A76874052DFAE470
:101D27003EFB8F048A828B838CF0E412A768A80D90
:101D37000874062DF6E43E08F608A607E50D240408
:101D4700F8E4F608F6E50D2404F8C3E6940408E67B
:101D5700648094804003021DF3C005C006C007E5F8
:101D67000D2404F8E626FC08E633FBEC2CFCEB33E9
:101D7700FBA80D08EC26FDEB0836FE0886078D82CA
:101D87008E838FF0E412A768A80D08EC26FDEB08F8
:101D970036FE08860774012DFAE43EFB8F048A821B
:101DA7008B838CF0E412A768A312A76874032DFA3B
:101DB700E43EFB8F048A828B838CF012AD144401BE
:101DC70012A76874032DFDE43EFE8D828E838FF08B
:101DD70012AD1454FD12A768E50D2404F806B600E9
:101DE700020806D007D006D005021D4C74162DFD3B
:101DF700E43EFE8D828E838FF0E412A768850D8105
:101E0700D00D22C00D85810DC082C083C0F0A80D02
:101E17000886820886830886F0E50D24FDF9E71217
:101E2700A768A80D08740126FAE40836FB0886049B
:101E37008A828B838CF0E50D24FCF8E612A768A84C
:101E47000D08740226FAE40836FB088604E50D241B
:101E5700FAF886078A828B838CF0EF12A768A80DA1
:101E670008740326FDE40836FE088607E50D24FA04
:101E7700F80886048D828E838FF0EC12A768A80D70
:101E870008740426FDE40836FE088607E50D24F8E5
:101E9700F886048D828E838FF0EC12A768A80D0850
:101EA700740526FDE40836FE088607E50D24F8F8D4
:101EB7000886048D828E838FF0EC12A768A80D0820
:101EC700740626FDE40836FE088607E50D24F6F8B5
:101ED70086048D828E838FF0EC12A768A80D087494
:101EE7000726FDE40836FE088607E50D24F6F80800
:101EF70086048D828E838FF0EC12A768850D81D0C2
:101F07000D22C00D85810DAD82AE83AFF0C007C035
:101F170006C005E50D24F9F8E6C0E008E6C0E0E4F0
:101F2700C0E0C0E0C0E004C0E07406C0E07480C058
:101F3700E090045775F000121E0AE58124F8F58138
:101F4700D005D006D00774032DFDE43EFE8D828EAA
:101F5700838FF012AD14FD7455C0E07404C0E0E443
:101F6700C0E0E50D24FBF8E6C0E008E6C0E008E6BF
:101F7700C0E0C00590045775F000128D39AF82E5B7
:101F87008124F9F581900454EFF0EF702EE50D24CC
:101F9700F6F8E608466024E50D24F6F88605088677
:101FA70006088607900455E0FBA3E0FC8D828E832C
:101FB7008FF0EB12A768A3EC12A768900454E0F522
:101FC70082D00D22C00D85810DAD82AE83AFF0C0EA
:101FD70007C006C005E50D24F9F8E6C0E008E6C02D
:101FE700E0E4C0E0C0E0C0E07402C0E07406C0E016
:101FF7007480C0E090046275F000121E0AE5812427
:10200700F8F581D005D006D00774032DFDE43EFE18
:102017008D828E838FF012AD14FD7460C0E074045E
:10202700C0E0E4C0E0E50D24FBF8E6C0E008E6C048
:10203700E008E6C0E0C00590046275F000128D3933
:10204700AF82E58124F9F58190045FEFF0EF702E00
:10205700E50D24F6F8E608466024E50D24F6F88633
:1020670005088606088607900460E0FBA3E0FC8D60
:10207700828E838FF0EB12A768A3EC12A7689004F7
:102087005FE0F582D00D22C00D85810DAD82AE8354
:10209700AFF0E50D24FDF886037C00C007C006C03D
:1020A70005E4C0E0C0E0C0E0C0E0C003C0047405C0
:1020B700C0E0E4C0E090046BF5F0121E0AE581244D
:1020C700F8F581D005D006D00774032DFDE43EFE58
:1020D7008D828E838FF012AD14FDE4C0E0C0E0C0A6
:1020E700E0C0E0C0E0C0E0C00590046BF5F0128DE1
:1020F70039AF82E58124F9F58190046AEFF0EF703A
:102107000AE50D24FDF88682128AD090046AE0F56C
:1021170082D00D22C00D85810DAD82AE83AFF0E573
:102127000D24FDF886037C00C007C006C005E4C087
:10213700E0C0E0C0E0C0E0C003C0047409C0E0E450
:10214700C0E0900474F5F0121E0AE58124F8F581C9
:10215700D005D006D00774032DFDE43EFE8D828E98
:10216700838FF012AD14FDE4C0E0C0E0C0E0C0E032
:10217700C0E0C0E0C005900474F5F0128D39AF825D
:10218700E58124F9F581900473EFF08F82D00D2259
:10219700C00D85810DAD82AE83AFF0C007C006C00C
:1021A70005E50D24F9F8E6C0E008E6C0E0E4C0E084
:1021B700C0E0C0E07429C0E07406C0E074A0C0E0CD
:1021C70090047F75F000121E0AE58124F8F581D08E
:1021D70005D006D00774032DFDE43EFE8D828E8365
:1021E7008FF012AD14FD747DC0E07404C0E0E4C04C
:1021F700E0E50D24FBF8E6C0E008E6C0E008E6C02D
:10220700E0C00590047F75F000128D39AF82E5813B
:1022170024F9F58190047CEFF0EF702EE50D24F69C
:10222700F8E608466024E50D24F6F88605088606D4
:1022370008860790047DE0FBA3E0FC8D828E838FE8
:10224700F0EB12A768A3EC12A76890047CE0F58274
:10225700D00D22C00D85810D05810581AD82AE832C
:10226700AFF0E50D24FDF886037C00C007C006C06B
:10227700057404C0E0E4C0E0C003C004C0E0C0E0EF
:10228700C0E074A3C0E090048E75F000121E0AE54A
:102297008124F8F581D005D006D00774032DFDE41D
:1022A7003EFE8D828E838FF012AD14FD7488C0E0E0
:1022B7007404C0E0E4C0E0748AC0E07404C0E0E4E1
:1022C700C0E0C00590048EF5F0128D39AF82E5812C
:1022D70024F9F581900487EFF0EF6003022374E59A
:1022E7000D24FAF8E60846603DE50D24FAF8860560
:1022F70008860608860790048BE0FC7B00A80D087B
:1023070008A60418760090048AE0FA7C00A80D0855
:10231700E6420208E642048D828E838FF0EA12A716
:1023270068A3EC12A768E50D24F7F8E60846603DB8
:10233700E50D24F7F8860508860608860790048DBC
:10234700E0FC7B00A80D0808A60418760090048C12
:10235700E0FA7C00A80D08E6420208E642048D82F6
:102367008E838FF0EA12A768A3EC12A76890048700
:10237700E0F582850D81D00D22C00D85810DC082CB
:10238700C083C0F0E50D24FDF886047B00E50D242D
:10239700FCF88602E4FFC0E0C0E0C004C003C0024E
:1023A700C0077403C0E07423C0E090049775F00081
:1023B700121E0AE58124F8F581A80D08740326FD8D
:1023C700E40836FE0886078D828E838FF012AD14DF
:1023D700FDE4C0E0C0E0C0E0C0E0C0E0C0E0C00590
:1023E700900497F5F0128D39AF82E58124F9F581D4
:1023F700900496EFF08F82850D81D00D22C00D8558
:10240700810DC082C083C0F0E50D24FDF886047BF2
:1024170000E50D24FCF88602E4FFC0E0C0E0C0043C
:10242700C003C002C00704C0E07423C0E09004A04A
:1024370075F000121E0AE58124F8F581A80D0874CD
:102447000326FDE40836FE0886078D828E838FF00B
:1024570012AD14FDE4C0E0C0E0C0E0C0E0C0E0C0E1
:10246700E0C0059004A0F5F0128D39AF82E5812414
:10247700F9F58190049FEFF08F82850D81D00D22B1
:10248700C00D85810DAD82AE83AFF0E50D24FDF85B
:1024970086037C00C007C006C005E50D24F8F8E6F2
:1024A700C0E008E6C0E0C003C004E4C0E07422C096
:1024B700E07406C0E07481C0E09004AB75F00012D0
:1024C7001E0AE58124F8F581D005D006D0077403EC
:1024D7002DFDE43EFE8D828E838FF012AD14FD74C8
:1024E700A9C0E07404C0E0E4C0E0E50D24FAF8E612
:1024F700C0E008E6C0E008E6C0E0C0059004AB75A0
:10250700F000128D39AF82E58124F9F5819004A896
:10251700EFF0EF702EE50D24F5F8E608466024E5A8
:102527000D24F5F886050886060886079004A9E0B5
:10253700FBA3E0FC8D828E838FF0EB12A768A3ECE0
:1025470012A7689004A8E0F582D00D22C00D8581FE
:102557000DAD82AE83AFF0E50D24FDF886037C0058
:10256700C007C006C005E4C0E0C0E0C003C004E582
:102577000D24FBF8E6C0E008E6C0E0740BC0E07489
:1025870021C0E09004B475F000121E0AE58124F81A
:10259700F581D005D006D00774032DFDE43EFE8DEE
:1025A700828E838FF012AD14FDE4C0E0C0E0C0E07E
:1025B700C0E0C0E0C0E0C0059004B4F5F0128D396A
:1025C700AF82E58124F9F5819004B3EFF08F82D0D3
:1025D7000D22C00D85810DAD82AE83AFF0E50D24D0
:1025E700FDF886037C00C007C006C0057401C0E083
:1025F700E4C0E0C003C004C0E0C0E07403C0E074FE
:10260700A1C0E09004BE75F000121E0AE58124F80F
:10261700F581D005D006D00774032DFDE43EFE8D6D
:10262700828E838FF012AD14FD7401C0E0E4C0E028
:10263700C0E074BDC0E07404C0E0E4C0E0C0059031
:1026470004BEF5F0128D39AF82E58124F9F581904A
:1026570004BCEFF09004BDE0F582D00D22C00D85DB
:10266700810DC082C083C0F0E581240AF581E50DA4
:1026770024FCF8860308E6C313CB13CBC313CB1391
:10268700CBE50D24FAF886027C008B077B00E50D6D
:1026970024FBF886057E00ED4203EE4207E50D2494
:1026A70004F8A60308A607E50D2406FEFB7D007FB8
:1026B70040C006E4C0E0C0E0C002C004E50D240449
:1026C700F8E6C0E008E6C0E0740AC0E07421C0E0A4
:1026D7008B828D838FF0121E0AE58124F8F581D055
:1026E70006A80D08740326FCE40836FD0886078C47
:1026F700828D838FF012AD14FC7F007D40E4C0E033
:10270700C0E0C0E0C0E0C0E0C0E0C0048E828F83BC
:102717008DF0128D39AF82E58124F9F5819004C6D9
:10272700EFF08F82850D81D00D22C00D85810DAD13
:1027370082AE83AFF0E50D24FDF886037C00C00769
:10274700C006C005E50D24F8F8E6C0E008E6C0E0DD
:10275700C003C004E4C0E07402C0E07409C0E074C0
:1027670021C0E09004CA75F000121E0AE58124F822
:10277700F581D005D006D00774032DFDE43EFE8D0C
:10278700828E838FF012AD14FD74C8C0E07404C04C
:10279700E0E4C0E0E50D24FAF8E6C0E008E6C0E0B2
:1027A70008E6C0E0C0059004CA75F000128D39AF85
:1027B70082E58124F9F5819004C7EFF08F82D00D6F
:1027C700229004D2E4F0A3F09004D2E0FEA3E08EBE
:1027D70082128A7C9004D2E02401F0A3E03400F056
:1027E7009004D2E0FEA3E0FFC3EE9402EF6480946E
:1027F7008040D522C00DE581F50D2407F581AD8216
:10280700AE83AFF09004D4E4F0740C2DFAE43EFBF1
:102817008F048A828B838CF012AD14FA9004DAF05D
:10282700E4A3F09004D6F0A3F0740D2DFDE43EFE72
:10283700C005C006C0079004D6E0FBA3E0FC9004E7
:10284700DAE0FAA3E0FFC3EB9AEC64808FF063F061
:102857008095F0D007D006D0054003022AB4A80D12
:1028670008A6038D828E838FF012AD14FAA312ADE2
:1028770014FBA312AD14FCC007C006C005A80D08C1
:10288700E6C0E08A828B838CF0129CFCAA82AB8321
:10289700ACF01581D005D006D007E50D2405F8A6C4
:1028A7000208A60308A604E50D2405F8E608467005
:1028B70003022AA5C005C006C007E50D2405F88652
:1028C700820886830886F012AD14FFBF03028009D1
:1028D700D007D006D005022AA5E50D2405F8740512
:1028E70026FDE40836FE0886078D828E838FF01258
:1028F700AD149004DCF0E4A3F09004D8F0A3F0E565
:102907000D2405F8A90D0909740626F7E408360908
:10291700F708E609F7D007D006D005C005C006C0FE
:10292700079004D8E0FCA3E0FB9004DCE0FEA3E002
:10293700FFC3EC9EEB64808FF063F08095F0D007C7
:10294700D006D0054003022AA5C005C006C007EC83
:102957002CFEEB33FFEE2EFEEF33FFA80D0808EE3B
:1029670026FEEF0836FF0886058E048F038D027456
:10297700032CFDE43BFE8A078D828E838FF012AD18
:10298700145401FDBD01028009D007D006D005020D
:102997002A96D007D006D005C007C006C005E4C0F8
:1029A700E0C0E074DEC0E07404C0E0E4C0E074524C
:1029B700C0E07402C0E0E4C0E08C828B838AF0122E
:1029C70090BBAC82E58124F8F581D005D006D0070D
:1029D7009004D4ECF0EC6003022A96C005C006C050
:1029E700079004DEE0FBA3E0C40354F8CBC403CB99
:1029F7006BCB54F8CB6BFA7C007F00C007C006C0D6
:102A0700057452C0E07402C0E0E4C0E0C003C00235
:102A1700C004C007E50D2405F8868208868308866A
:102A2700F0125775E58124F9F581D005D006D00756
:102A3700D007D006D0059017A5E0700790F009E4FD
:102A470093604CC007C006C0059004DEE0C0E0A359
:102A5700E0C0E09004D6E0C0E0A3E0C0E074A4C00A
:102A6700E074C0C0E07480C0E012ACDBE58124F9FB
:102A7700F5819004DEE0C0E0A3E0C0E0900252756B
:102A8700F000121BF715811581D005D006D00790ED
:102A970004D8E02401F0A3E03400F00229229004D6
:102AA700D6E02401F0A3E03400F00228379004D4E4
:102AB700E0F582850D81D00D22C00D85810D058140
:102AC7000581AD82AE83AFF09004E5EDF0EEA3F0A3
:102AD700EFA3F074E1C0E07404C0E0E4C0E0740860
:102AE700C0E0E4C0E07452C0E07402C0E0E4C0E0BB
:102AF7008D828E838FF0121F09AF82E58124F8F54E
:102B0700819004E0EFF0EF601B74AFC0E074C0C0C9
:102B1700E07480C0E012ACDB1581158115817582E8
:102B270000022F471276559004E1E0C0E0A3E0C011
:102B3700E074B9C0E074C0C0E07480C0E012ACDBE0
:102B4700E58124FBF5819004E1E0FEA3E09004E534
:102B5700E0C0E0A3E0C0E0A3E0C0E0C006900252FE
:102B670075F000121205E58124FCF5819004E5E07B
:102B7700FDA3E0FEA3E0FF74032DFDE43EFE8D827E
:102B87008E838FF012AD14FD7F00C005C00774C59A
:102B9700C0E074C0C0E07480C0E012ACDBE5812403
:102BA700FBF5819004E5E0FDA3E0FEA3E0FFE50D62
:102BB70024FDF8E6C0E08D828E838FF012208EAF61
:102BC7008215819004E0EFF0EF601B74CDC0E074D4
:102BD700C0C0E07480C0E012ACDB1581158115819F
:102BE700758200022F479004E5E0FDA3E0FEA3E015
:102BF700FF740A2DFDE43EFE8D828E838FF012ADA9
:102C070014FD7F00C005C00774D8C0E074C0C0E0E1
:102C17007480C0E012ACDBE58124FBF5819004E50C
:102C2700E0FDA3E0FEA3E0FF740A2DFDE43EFE8D68
:102C3700828E838FF0E50D24FDF8E612A7689004D5
:102C4700E5E0FDA3E0FEA3E0FF74E1C0E07404C08B
:102C5700E0E4C0E07412C0E0E4C0E07452C0E07485
:102C670002C0E0E4C0E08D828E838FF0121F09AFAF
:102C770082E58124F8F5819004E0EFF0EF601B74A2
:102C8700E4C0E074C0C0E07480C0E012ACDB158122
:102C970015811581758200022F479004E1E0C0E09D
:102CA700A3E0C0E074F2C0E074C0C0E07480C0E08C
:102CB70012ACDBE58124FBF5817401C0E074C1C06F
:102CC700E07480C0E012ACDB15811581158190049A
:102CD700E1E0C0E0A3E0C0E090025275F000121BF3
:102CE700F7158115819004E1E0FEA3E09004E5E08B
:102CF700C0E0A3E0C0E0A3E0C0E0C00690025275C8
:102D0700F000121205E58124FCF5819004E5E0FD51
:102D1700A3E0FEA3E0FF74082DFAE43EFB8F048ACC
:102D2700828B838CF0A80D0812AD14F6A312AD1494
:102D370008F674062DFAE43EFB8F048A828B838C97
:102D4700F012AD14FAA312AD14FB74042DFDE43E8A
:102D5700FE8D828E838FF012AD14FDA312AD14FE8B
:102D6700A80D08E6C0E008E6C0E0C002C003C00541
:102D7700C0067416C0E074C1C0E07480C0E012AC35
:102D8700DBE58124F7F5819004E37409F0E4A3F00F
:102D97009004E5E0FDA3E0FEA3E0FF74E1C0E0746A
:102DA70004C0E0E4C0E07409C0E0E4C0E07452C0CD
:102DB700E07402C0E0E4C0E08D828E838FF0121FC2
:102DC700CBAF82E58124F8F5819004E0EFF0EF6066
:102DD7001B742CC0E074C1C0E07480C0E012ACDB8F
:102DE700158115811581758200022F479004E874BB
:102DF70052F07402A3F0E4A3F0900254F5F012AD80
:102E070014FF90025512AD14FDE4FEFCEF4206ECF0
:102E170042059004E3EEF0EDA3F0C3E49E74029D37
:102E270050099004E3E4F07402A3F09004E5E0FD98
:102E3700A3E0FEA3E0FF74E1C0E07404C0E0E4C0D7
:102E4700E09004E3E0C0E0A3E0C0E07452C0E074A7
:102E570002C0E0E4C0E08D828E838FF0121FCBAFFB
:102E670082E58124F8F5819004E0EFF0EF601B74B0
:102E770037C0E074C1C0E07480C0E012ACDB1581DC
:102E870015811581758200022F477443C0E074C114
:102E9700C0E07480C0E012ACDB158115811581900C
:102EA70004E1E0C0E0A3E0C0E090025275F0001238
:102EB7001BF7158115819004E5E0C0E0A3E0C0E0B1
:102EC700A3E0C0E09004E1E0C0E0A3E0C0E090022E
:102ED7005275F00012141CE58124FBF5819004E182
:102EE700E0C0E0A3E0C0E07458C0E074C1C0E07483
:102EF70080C0E012ACDBE58124FBF581900257E04E
:102F0700FF9004E5E0FCA3E0FDA3E0FEC0078C8290
:102F17008D838EF012211BAF8215819004E0EFF0B4
:102F2700EF601A7463C0E074C1C0E07480C0E0123F
:102F3700ACDB1581158115817582008003758201CF
:102F4700850D81D00D22C00D85810DAF82E50D2441
:102F5700FDF8B6FF0CEF75F005A49004EB04F080C4
:102F670015EF75F005A4FFE50D24FDF8860674023C
:102F77002E9004EB2FF09004EBE0F582D00D22C0E9
:102F87000D85810DC082E581241DF5819004F0E453
:102F9700F0A80D088682128AED9004ECE4F0900404
:102FA700EDF09004ECE0FEBE0A005017A80D08866D
:102FB70082128929900001121AD19004ECE02401B1
:102FC700F080DF900064121AD174FFC0E0A80D08EA
:102FD7008682128B32158174FFC0E0A80D088682A5
:102FE700122F4DAE8215819004F1EEF0A80D08E680
:102FF70075F010A42481FC741635F0FD8C028D0346
:103007007F00C005C004C0068A828B838FF0122A16
:10301700C0AF821581D004D005EF70030237E18C71
:10302700828D837403F08C828D83A3A3E0FEBE0997
:103037000280030237F8C005C004746DC0E074C194
:10304700C0E07480C0E012ACDB158115811581D01A
:1030570004D0058C038D06E50D2419F8A60308A6F0
:1030670006087600C005C00474EEC0E07404C0E032
:10307700E4C0E07409C0E0E4C0E07452C0E0740248
:10308700C0E0E4C0E0E50D2419F8868208868308CD
:1030970086F0122197AF82E58124F8F581D004D01C
:1030A700059004EDEFF0EF6032A80D088682C005A9
:1030B700C00412898DD004D0058C828D837402F0F0
:1030C7007479C0E074C1C0E07480C0E012ACDB1555
:1030D70081158115817582000237FB90025475F0C6
:1030E7000012AD14FDFB7E00C005C003C006748747
:1030F700C0E074C1C0E07480C0E012ACDBE581249D
:10310700FBF581D005ED24FB50027D04E50D241964
:10311700F8740126FBE40836FE0886078B828E8347
:103127008FF0ED12A7689004ECE4F0A80D08E50D08
:10313700240CF9E675F040A4F709A7F0E50D240C77
:10314700F8E624A1FA08E63416FB9004ECE0FFC386
:103157009D5052C002C0038F030BC005C002740804
:10316700C0E0C003E50D2419F88682088683088627
:10317700F0122380AB8215811581D002D00590040F
:10318700EDEBF0EBD003D00260129004ECE0C454F6
:10319700F0FF2AF582E43BF5837402F09004ECE03B
:1031A7002401F080A5E50D2419F8740D26FAE4082A
:1031B70036FB0886078A828B838FF012AD14FAA339
:1031C70012AD14FBA312AD14FFC005E4C0E08A8260
:1031D7008B838FF0129CFCAB82AE83AFF0158174AA
:1031E700062BFBE43EFEE50D241CF8A60308A60605
:1031F70008A607E50D241C8B828E838FF012AD1471
:10320700FB7F00C003C0077494C0E074C1C0E074C2
:1032170080C0E012ACDBE58124FBF5817420C0E0BF
:10322700744EC0E074EEC0E07404C0E0E4C0E07423
:1032370052C0E07402C0E0E4C0E0E50D241CF8864B
:10324700820886830886F01290BBAF82E58124F856
:10325700F581D0059004EDEFF0EF601B74AAC0E094
:1032670074C1C0E07480C0E012ACDB158115811514
:10327700817582000237FB900252E0FA7B00C0059D
:10328700C003C002C002C00374BCC0E074C1C0E088
:103297007480C0E012ACDBE58124FBF581D002D05D
:1032A70003D0059004ECE4F0E50D240CF8A90D0912
:1032B70009E624A1F708E6341609F7A80D0808E57A
:1032C7000D2404F9E6F708E609F7A80D0808E50D47
:1032D7002406F9E6F708E609F7A80D0808E50D241E
:1032E70008F9E6F708E609F7A80D0808E50D240A26
:1032F700F9E6F708E609F79004ECE0FCC39D400304
:103307000237F8EC04FF8FF005F07F017E0080069E
:10331700EF2FFFEE33FED5F0F7EA5207EB5206EF39
:103327004E70030237D7C002C0038C027B00C00572
:10333700C003C002C002C00374CAC0E074C1C0E0C9
:103347007480C0E012ACDBE58124FBF5819000328C
:10335700121AD174FFC0E0A80D088682128B3215AD
:1033670081D002D003E50D2417FCE50D240FF8A644
:1033770004087600087640E50D240EF8E50D2415BF
:10338700F6E50D240EF886037E007F409004ECE0FE
:10339700FA0AC004C003C002E50D240FF8E6C0E036
:1033A70008E6C0E008E6C0E0C003C006C007C002E8
:1033B700E50D2419F886820886830886F012225ABA
:1033C700AF82E58124F9F581D002D003D004D0057E
:1033D7009004EDEFF0D003D002EF6026E50D240C4A
:1033E700F8E624A1FE08E63416FD9004ECE0C45488
:1033F700F0FF2EF582E43DF5837402F0758200023A
:1034070037FBC005C004C003C002E50D2417F8E66A
:10341700C0E008E6C0E0E50D2415F8E6C0E008E6E0
:10342700C0E074DAC0E074C1C0E07480C0E012ACE0
:10343700DBE58124F9F581D002D003D004D005E57E
:103447000D2415F88606088607EE20E0030237D715
:10345700E50D2417F88606088607EE20E0030237F5
:10346700D79004ECE0FF7E00C005C004C003C00293
:10347700C007C00674F1C0E074C1C0E07480C0E04A
:1034870012ACDBE58124FBF5819004ECE0FF0F74BF
:1034970010C0E0C007E50D2419F886820886830866
:1034A70086F0122404AF8215811581D002D003D093
:1034B70004D0059004EDEFF0EF6026E50D240CF83D
:1034C700E624A1FE08E63416FD9004ECE0C454F0AF
:1034D700FF2EF582E43DF5837402F0758200023712
:1034E700FB9004ECE0FF0FC005C004C003C00274EA
:1034F70004C0E0C007E50D2419F886820886830812
:1035070086F0122380AF8215811581D002D003D0B7
:1035170004D0059004EDEFF0EF6026E50D240CF8DC
:10352700E624A1FE08E63416FD9004ECE0C454F04E
:10353700FF2EF582E43DF5837402F07582000237B1
:10354700FB900064C005C004C003C002121AD1D0AA
:1035570002D003D004D005E50D240EF8E50D240FA5
:10356700F9E6F7C002C003E50D2412F8A6040876B1
:1035770000087640E50D240FF886037E007F409013
:1035870004ECE0FA0AC005C004C003C002E50D243C
:1035970012F8E6C0E008E6C0E008E6C0E0C003C0F5
:1035A70006C007C002E50D2419F88682088683083D
:1035B70086F012225AAF82E58124F9F581D002D034
:1035C70003D004D0059004EDEFF0D003D002EF60F4
:1035D70026E50D240CF8E624A1FE08E63416FD9036
:1035E70004ECE0C454F0FF2EF582E43DF583740249
:1035F700F07582000237FB900014C005C004C003B9
:10360700C002121AD1D002D003D004D005E50D2490
:1036170015F88606088607EE30E40302356AC0020D
:10362700C003E50D2417F88602085302107B00BA81
:103637001005BB00028007D003D0020237D7D003A2
:10364700D002EF30E1429004ECE0C454F0FFE50D06
:103657002404F8EF26FFE40836FE740B2FF582E406
:103667003EF583E4F0C005C003C0027403C0E074F4
:10367700C2C0E07480C0E012ACDB158115811581F2
:10368700D002D003D00580409004ECE0C454F0FF92
:10369700A80D0808EF26FFE40836FE740B2FF58205
:1036A700E43EF5837401F0C005C003C002740DC089
:1036B700E074C2C0E07480C0E012ACDB15811581F4
:1036C7001581D002D003D005C002C0039004ECE0FE
:1036D700FF0FC005C003C0027414C0E0C007E50DAA
:1036E7002419F886820886830886F0122404AF829C
:1036F700158115819004EDEFF09004ECE0C0E0A88F
:103707000D088682128B3215819004ECE0C0E0A888
:103717000D088682122F4DAF821581D002D00390FB
:1037270004F1EFF09004ECE0C454F0FEE50D24063C
:10373700F8EE26FBE40836FE7A00C003C002C00795
:103747008B828E838AF0122AC0AF821581D002D075
:1037570003D005D003D002EF603CC005C003C00210
:103767007418C0E074C2C0E07480C0E012ACDB150E
:103777008115811581D002D003D0059004ECE0C4F7
:1037870054F0FFE50D240AF8EF26F582E40836F534
:10379700837403F0803AC005C003C0027421C0E0FF
:1037A70074C2C0E07480C0E012ACDB1581158115CE
:1037B70081D002D003D0059004ECE0C454F0FFE5BB
:1037C7000D2408F8EF26F582E40836F5837402F035
:1037D7009004ECE02401F00232FEA80D088682C0B6
:1037E70005C00412898DD004D0058C828D837402A4
:1037F700F0758201850D81D00D229004F2E4F090DE
:1038070004F3F010D803023885E5DB30E31990168E
:1038170081E0702FF58212898D9016817401F090E6
:1038270004F37415F0801C901681E0FFBF0100407F
:103837001275820012898D9004F3E070069004F3EC
:103847007416F0E5DB30E71A901691E07030758258
:103857000112898D9016917401F09004F37415F09C
:10386700801C901691E0FFBF010040127582011283
:10387700898D9004F3E070069004F37416F09004B9
:10388700F3E0F58222C00DE581F50D2404F581AD45
:1038970082AE83AFF09004FBEDF0EEA3F0EFA3F060
:1038A70074022DFDE43EFE8D828E838FF012AD14DF
:1038B700FDBD0903023D5D9004F4E4F09004FBE0D4
:1038C700FDA3E0FEA3E0FF740C2DFAE43EFB8F049A
:1038D7008A828B838CF012AD14FA9004F4E0FCC357
:1038E7009A4003023D5D740D2DFDE43EFE8D828EF0
:1038F700838FF012AD14FDA312AD14FEA312AD1405
:10390700FFC0048D828E838FF0129CFCAD82AE8344
:10391700AFF01581A80D08A60508A60608A607A8F2
:103927000D0886820886830886F012AD14FCBC0356
:10393700028003023D539004FBE0FAA3E0FBA3E0FF
:10394700FC9004F4E0C0E0E4C0E0C0E0C0E08A829C
:103957008B838CF0122664AC82E58124FCF5819080
:1039670004F5ECF09004F4E0FC7B00C004C00374A1
:103977002CC0E074C2C0E07480C0E012ACDBE5810B
:1039870024FBF581A80D08740226FAE40836FB0823
:1039970086048A828B838CF012AD14FA7C00C002F5
:1039A700C004743BC0E074C2C0E07480C0E012ACD5
:1039B700DBE58124FBF581A80D08740326FAE408EA
:1039C70036FB0886048A828B838CF012AD14FAA327
:1039D70012AD14FBC3E49A74029B920040048A045C
:1039E70080047C007B029004FBE0FAA3E0FEA3E0E6
:1039F700FF74F7C0E07404C0E0E4C0E0C004C00393
:103A07007452C0E07402C0E0E4C0E09004F4E0C087
:103A1700E08A828E838FF0122487AF82E58124F7B4
:103A2700F5819004F5EFF0EF60208F037C00C00371
:103A3700C0047453C0E074C2C0E07480C0E012AC2C
:103A4700DBE58124FBF581023D5D9004F4E0FC7B1E
:103A570000C004C0037466C0E074C2C0E07480C0D4
:103A6700E012ACDBE58124FBF5819004F7E0C0E0D0
:103A7700A3E0C0E090025275F000121BF715811504
:103A87008190167BE0701DA80D08740226FAE408E1
:103A970036FB0886048A828B838CF012AD14FABA3F
:103AA7000202802990167AE06003023C13A80D08F1
:103AB700740226FAE40836FB0886048A828B838C14
:103AC700F012AD14FABA01028003023C13A80D08E4
:103AD700740126FAE40836FB0886048A828B838CF5
:103AE700F012AD14FABA01028003023BFB9004FB0B
:103AF700E0FAA3E0FBA3E0FC9004F4E0C0E08A82D4
:103B07008B838CF01225D9AC8215817B00C004C051
:103B170003748CC0E074C2C0E07480C0E012ACDBF8
:103B2700E58124FBF5819004FBE0FAA3E0FBA3E029
:103B3700FCE4C0E0C0E09004F4E0C0E08A828B833C
:103B47008CF0122553158115811581A80D08740273
:103B570026FAE40836FB0886048A828B838CF012E7
:103B6700AD14FABA02067B327C0080047B3F7C00EE
:103B7700A80D08740226FAE40836FE0886078A822A
:103B87008E838FF012AD14FABA02067E737F178008
:103B9700047E347F177D00A80D08E6C0E008E6C064
:103BA700E008E6C0E0C003C0048E828F838DF01268
:103BB7000A5BE58124FBF5819004FBE0FDA3E0FEB1
:103BC700A3E0FF9004F4E0C0E08D828E838FF012B3
:103BD70025D9AF8215817E00C007C00674A2C0E058
:103BE70074C2C0E07480C0E012ACDBE58124FBF551
:103BF70081023CE174A6C0E074C2C0E07480C0E0FA
:103C070012ACDB158115811581023D539004FBE051
:103C1700FDA3E0FEA3E0FF9004F4E0C0E08D828EF8
:103C2700838FF01225D9AF8215817E00C007C006A9
:103C370074B4C0E074C2C0E07480C0E012ACDBE5CD
:103C47008124FBF5819004FBE0FDA3E0FEA3E0FFE8
:103C57007401C0E0E4C0E09004F4E0C0E08D828E1F
:103C6700838FF01225531581158115819004FBE090
:103C7700FDA3E0FEA3E0FF9004F4E0C0E08D828E98
:103C8700838FF01225D9AF8215817E00C007C00649
:103C970074A2C0E074C2C0E07480C0E012ACDBE57F
:103CA7008124FBF581A80D08E6C0E008E6C0E0081E
:103CB700E6C0E09004F7E0C0E0A3E0C0E090025265
:103CC70075F000120A5BE58124FBF581A80D0886D3
:103CD700820886830886F012073BA80D087402261F
:103CE700FDE40836FE0886078D828E838FF012ADBD
:103CF70014FDBD01571200F7AF82E50D2404F8A6A5
:103D070007E50D2404FF7E007D409004FBE0FAA345
:103D1700E0FBA3E0FC7401C0E0E4C0E0C007C0061C
:103D2700C0059004F4E0C0E08A828B838CF01227F0
:103D370031E58124FAF58174CCC0E074C2C0E07427
:103D470080C0E012ACDB1581158115819004F4E089
:103D57002401F00238C3850D81D00D22C00D858165
:103D67000DC082058105810581A80D08E675F01053
:103D7700A42481FD741635F0FC7E00900501EDF05A
:103D8700ECA3F0EEA3F08D828C838EF012AD14FBC2
:103D9700BB03028003023EBC74022DFAE43CFB8E97
:103DA700078A828B838FF012AD14FABA0902803129
:103DB70074FFC0E0A80D088682128B32158190052A
:103DC70001A80D0808E0F6A3E008F6A3E008F6A8A6
:103DD7000D080886820886830886F012388C023E12
:103DE700BC0DBD00010C8D828C838EF012AD14FECC
:103DF700A80D08E675F040A424A1FC741635F0FD63
:103E07007B00C3EB9E4003023EBCC006EBC454F0EC
:103E17002CFAE43DFEA80D0808A60208A6060876B7
:103E270000A80D0808900501E6F008E6A3F008E6EB
:103E3700A3F0A80D080886820886830886F012ADCD
:103E470014FEBE03028004D0068066A80D0808741D
:103E57000226FAE40836FE0886078A828E838FF0E8
:103E670012AD14FABA0904D0068046D006C006C0BF
:103E770006C005C004C003C003A80D088682128BC4
:103E8700321581D003D004D005D006900501E0FAA1
:103E9700A3E0FEA3E0FF8A828E838FF0C006C005F1
:103EA700C004C00312388CD003D004D005D006D08C
:103EB700060B023E09850D81D00D229017A5E070F3
:103EC70005901730E4F074D7C0E074C2C0E0748086
:103ED700C0E012ACDB158115811581900096121A8E
:103EE700D11227C812762C1293EB7F008F057E0024
:103EF700C007C005C00674F0C0E074C2C0E074809B
:103F0700C0E012ACDBE58124FBF581D0078F82C0CE
:103F170007122F86D0078F82C007123D63D0070F85
:103F2700BF020040C774F9C0E074C2C0E07480C02B
:103F3700E012ACDB1581158115819017307401F003
:103F470022123801AF82900504EFF0BF1503023E3D
:103F5700C222C00D85810DC082058105810581A81A
:103F67000D08E675F010A42481FD741635F0FC7E6B
:103F770000900505EDF0ECA3F0EEA3F08D828C83A5
:103F87008EF012AD14FBBB030280030240B2740231
:103F97002DFAE43CFB8E078A828B838FF012AD14D7
:103FA700FABA0902803174FFC0E0A80D08868212B0
:103FB7008B321581900505A80D0808E0F6A3E008E7
:103FC700F6A3E008F6A80D08088682088683088607
:103FD700F01227FB0240B20DBD00010C8D828C83CD
:103FE7008EF012AD14FEA80D08E675F040A424A1CA
:103FF700FC741635F0FD7B00C3EB9E40030240B214
:10400700C006EBC454F02CFAE43DFEA80D0808A640
:104017000208A606087600A80D0808900505E6F030
:1040270008E6A3F008E6A3F0A80D0808868208862C
:10403700830886F012AD14FEBE03028004D006800A
:1040470066A80D0808740226FAE40836FE088607F3
:104057008A828E838FF012AD14FABA0904D00680D3
:1040670046D006C006C006C005C004C003C003A8EA
:104077000D088682128B321581D003D004D005D06B
:1040870006900505E0FAA3E0FEA3E0FF8A828E838F
:104097008FF0C006C005C004C0031227FBD003D0B1
:1040A70004D005D006D0060B023FFF850D81D00D49
:1040B70022C00D85810DC082C083C0F0E581240434
:1040C700F581A80D08740D26FAE40836FB08860466
:1040D700A80D08E50D2404F9740C26F7E408360941
:1040E700F708E609F7E50D2407F87600E50D24043F
:1040F700F886820886830886F012AD14FEE50D2443
:1041070007F8C3E69E40030241C88A828B838CF07E
:1041170012AD14FDA312AD14FEA312AD14FFC0041B
:10412700C003C002E50D2407F8E6C0E08D828E8348
:104137008FF0129CFCAD82AE83AFF01581D002D018
:1041470003D004C002C003C0048D828E838FF01297
:10415700AD14FCBC03028008D004D003D002805801
:10416700D004D003D00274022DFDE43EFE8D828E72
:10417700838FF012AD14FDBD013EE50D24FDFF7EDA
:10418700007D40C004C003C0027401C0E0E4C0E089
:10419700C007C006C005E50D2407F8E6C0E0A80D76
:1041A7000886820886830886F0122731E58124FA7B
:1041B700F581D002D003D004E50D2407F8060240AC
:1041C700F3850D81D00D22C00DE581F50D2406F58F
:1041D70081AF82A80D087600A80D08E675F010A437
:1041E7002481FC741635F0FB7D008C828B838DF067
:1041F70012AD14FABA03028003024333C0077402F4
:104207002CFAE43BFE8D078A828E838FF012AD1461
:10421700FABA0904D0078030C005C004C00374FF90
:10422700C0E0A80D088682128B321581D003D00416
:10423700D005D007C007C0078C828B838DF0124052
:10424700B81581D0070243330CBC00010B8C828B5D
:10425700838DF012AD14FCE50D2405F8A60408764D
:1042670000A80D08E675F040A424A1FB741635F0EC
:10427700FD7A00C003C0058A037D00E50D2405F81B
:10428700C3EB96ED64800886F063F08095F0D00567
:10429700D0034003024333EAC454F02BFEE43DFC51
:1042A700A80D0808A60608A604087600A80D0808A1
:1042B70086820886830886F012AD14FEBE0369C0A5
:1042C70003C005A80D0808740226FBE40836FD089C
:1042D70086068B828D838EF012AD14FBBB0906D048
:1042E70005D0038043D005D003C007C005C003C075
:1042F70002C002A80D088682128B321581D002D027
:1043070003D005D007C007C005C003C002C007A877
:104317000D080886820886830886F01240B8158142
:10432700D002D003D005D0070A02427AA80D0806AA
:10433700A80D08B6020050030241DF850D81D00D9C
:1043470022123F48901732E0600B901732E4F07565
:104357008200123F59901733E0600B901733E4F057
:07436700758201023F59229B
:10C099002530325820000A000A0A0049256858202C
:10C0A9004C25582D20006764642E6661696C0A006E
:10C0B900676464206C656E3A25640A006D707320AC
:10C0C90025640A0061646472206661696C0A006112
:10C0D900646472206F6B2025640A00676464667566
:10C0E9006C6C206661696C0A0067646466756C6CC7
:10C0F900206F6B2025640A004465766963652044D6
:10C10900657363726970746F72203A0A003078251A
:10C119003034582030782530345820307825303460
:10C12900580A0067636431206661696C0A006763B5
:10C13900642032206661696C0A00436F6E66696724
:10C149002044657363726970746F72203A0A0067DC
:10C159006364206F6B2025640A0073756320666130
:10C16900696C0A000A466F756E64206875620A0078
:10C179006875622064657363206572720A002564BC
:10C1890020706F7274206875620A00446F696E6767
:10C19900206E6577207468696E67202D2025780ADE
:10C1A900006E657720656E756D2E206661696C6518
:10C1B900640A006E657720656E756D2E2025780AF4
:10C1C90000636865636B6E20706F72742025640A62
:10C1D9000070732D203078253032582070632D205F
:10C1E9003078253032580A00706F72742025642027
:10C1F90061747461636865640A006C6F7773706554
:10C2090065640A0066756C6C73706565640A00651F
:10C219006E756D2E4F4B0A00656E756D2E666169E0
:10C229006C0A00496E746572666163652025783A07
:10C239000A00496E7465726661636550726F746F46
:10C24900636F6C3A2025780D0A0072657020646569
:10C25900736372206661696C2025750A000A0A49B0
:10C269006E74657266616365202568782052657011
:10C279006F72742044657363726970746F72202DD4
:10C28900200A0073657420626F6F74206D6F646596
:10C29900202D202578202D200025780A004E6F209A
:10C2A900626F6F74206D6F64650A00736574207224
:10C2B90065706F7274206D6F6465202D202578205C
:10C2C9002D20005365745265706F72740A0072658F
:10C2D900656E756D65726174696E6720616C6C203D
:10C2E900706F7274730A00706F72742025640A008B
:10C2F900646F6E65207265656E756D6572617469CE
:04C309006E670A0051
:03D3CE000000005C
:10C30D000109050000000102020000000000010902
:10C31D0006000000010102000000000001013200D2
:10C32D0000000104030200000000010135000000BF
:10C33D0001050302000000000000000000000000E5
:10C34D0000000000000001090500000000080200C7
:10C35D0000000000010906000000000902000000B5
:10C36D0000000000000000000000000000000000C0
:10C37D000109010000000004020000000000010995
:10C38D00020000000005020000000000010903008A
:10C39D00000000060200000000000109040000007A
:10C3AD000007020000000000010907000000000A5C
:10C3BD00020000000000010908000000000B02004F
:10C3CD000000000001090900000000290200000022
:10C3DD00000001090A000000002802000000000012
:10C3ED0001090B000000000C020000000000010913
:10C3FD000C000000000D02000000000001090D00FE
:10C40D000000000E02000000000001090E000000F7
:10C41D00000F02000000000001090F0000000010D5
:10C42D0002000000000001091000000000110200D0
:10C43D0000000000010130000000004F02C00000AC
:10C44D00000001013000000000500140000000001C
:10C45D00010131000000005102C000000000010187
:10C46D0031000000005201400000000001013900C0
:10C47D00000000520600000000000101390000001C
:10C48D000052060100000000010139000000004FBC
:10C49D00060100000000010139000000004F0602F6
:10C4AD0000000000010139000000004F06030000EC
:10C4BD0000000101390000000051060300000000DA
:10C4CD0001013900000000510604000000000101C7
:10C4DD00390000000051060500000000010139007F
:10C4ED0000000050060500000000010139000000A9
:10C4FD000050060600000000010139000000005048
:10C50D000607000000000101390000000052060777
:10C51D00000000000000000000000000000000000E
:10C52D0000000000000000000000000028000028AE
:10C53D0000000000000000000000000000000000EE
:10C54D0000002C0000000000000000000057005605
:10C55D003700271E1F20212223242526000000003E
:10C56D000000000405060708090A0B0C0D0E0F103C
:10C57D001112131415161718191A1B1C1D00000083
:10C58D000000000405060708090A0B0C0D0E0F101C
:10C59D001112131415161718191A1B1C1D00000063
:05C5AD00000000000089
:10D3D10005010906A101050719E029E71500250145
:10D3E1007501950881029501750881019505750101
:10D3F1000508190129059102950175039101950609
:10D401007508150025650507190029658100C00506
:10D41100010902A1010901A1000509190129051547
:10D4210000250195057501810295017503810105AD
:10D4310001093009311581257F750895028106C0E2
:01D44100C02A
:0700B300900607E4F0A3F042
:10436E007F0090172EE4F0A3F0EF2408F582E434DA
:10437E0005F583E0FE700122BE4100402DEE24A51E
:10438E00402890F00AE49370067CB67DCB80047CC6
:10439E00EF7DC87B808C828D838BF0C007C00612A8
:1043AE0069B7E582D006D00760D88E82C007C006F6
:1043BE00126A85D0068E82C006126AF8D006D00721
:1043CE00BE41004029EE24A5402490F00AE49370EB
:1043DE00067DD17ECC80047D5F7ECA7C808D828EF0
:1043EE00838CF0C0071269B7E582D00760DC0F023C
:1043FE004370E5829017ABF022E582602374B2C061
:10440E00E074C5C0E07480C0E07408C0E07405C0FC
:10441E00E0E4C0E012AB50E58124FAF58102436E70
:10442E0074B7C0E074C5C0E07480C0E07408C0E02A
:10443E007405C0E0E4C0E012AB50E58124FAF581CA
:10444E0002436E9017A9E0FF24F95003024B98EF38
:10445E002F2F90446473024479024487024B8702E3
:10446E0045E40246E70247EA0248A29017A9740102
:10447E00F09017ABE4F0024B989017AAE0FFBF0143
:10448E000302456C74BBC0E074C5C0E07480C0E02C
:10449E007408C0E07405C0E0E4C0E012AB50E581E2
:1044AE0024FAF58112436E74CDC0E074C5C0E07479
:1044BE0080C0E07408C0E07405C0E0E4C0E012AB58
:1044CE0050E58124FAF58112436E74D5C0E074C5AF
:1044DE00C0E07480C0E07408C0E07405C0E0E4C0C1
:1044EE00E012AB50E58124FAF58112436E74DFC001
:1044FE00E074C5C0E07480C0E07408C0E07405C00C
:10450E00E0E4C0E012AB50E58124FAF58112436E6F
:10451E0074E8C0E074C5C0E07480C0E07408C0E008
:10452E007405C0E0E4C0E012AB50E58124FAF581D9
:10453E0012436E74F3C0E074C5C0E07480C0E074C2
:10454E0008C0E07405C0E0E4C0E012AB50E5812481
:10455E00FAF58112436E9017A9E09017AAF0901702
:10456E00ABE0FFBF1E028017BF1F02801BBF2002E1
:10457E00801FBF21028023BF29028027024B989003
:10458E0017A97403F0024B989017A97404F0024B0C
:10459E00989017A97405F0024B989017A97406F01D
:1045AE00024B987406C0E074C6C0E07480C0E0741C
:1045BE0008C0E07405C0E0E4C0E012AB50E5812411
:1045CE00FAF58112436E9017A9E4F09017A6F090B9
:1045DE0017AAF0024B989017AAE0FFBF03030246FA
:1045EE0097740FC0E074C6C0E07480C0E07408C059
:1045FE00E07405C0E0E4C0E012AB50E58124FAF5AA
:10460E008112436E741BC0E074C6C0E07480C0E0BB
:10461E007408C0E07405C0E0E4C0E012AB50E58160
:10462E0024FAF58112436E90F004E493F58212445D
:10463E0007742EC0E074C6C0E07480C0E07408C079
:10464E00E07405C0E0E4C0E012AB50E58124FAF559
:10465E008112436E90F007E493F582124407744082
:10466E00C0E074C6C0E07480C0E07408C0E0740599
:10467E00C0E0E4C0E012AB50E58124FAF5811243AC
:10468E006E9017A9E09017AAF09017ABE0FFBF1E2F
:10469E0002800DBF1F028020BF29028033024B987B
:1046AE0090167AE0B40100E43390167AF012861C6C
:1046BE009017AAE4F0024B9890167DE0B40100E446
:1046CE003390167DF012861C9017AAE4F0024B98D8
:1046DE009017A97401F0024B989017AAE0FFBF043F
:1046EE000302479A7451C0E074C6C0E07480C0E003
:1046FE007408C0E07405C0E0E4C0E012AB50E58180
:10470E0024FAF58112436E741BC0E074C6C0E074C7
:10471E0080C0E07408C0E07405C0E0E4C0E012ABF5
:10472E0050E58124FAF58112436E90F005E493F57D
:10473E0082124407745AC0E074C6C0E07480C0E0B0
:10474E007408C0E07405C0E0E4C0E012AB50E5812F
:10475E0024FAF58112436E90F006E493F58212442A
:10476E00077440C0E074C6C0E07480C0E07408C036
:10477E00E07405C0E0E4C0E012AB50E58124FAF528
:10478E008112436E9017A9E09017AAF09017ABE034
:10479E00FFBF1E02800DBF1F028020BF2902803383
:1047AE00024B9890167BE0B40100E43390167BF038
:1047BE0012861C9017AAE4F0024B9890167CE0B477
:1047CE000100E43390167CF012861C9017AAE4F0D8
:1047DE00024B989017A97401F0024B989017AAE01B
:1047EE00FFBF0502807B746DC0E074C6C0E07480AC
:1047FE00C0E07408C0E07405C0E0E4C0E012AB5045
:10480E00E58124FAF58112436E7481C0E074C6C04E
:10481E00E07480C0E07408C0E07405C0E0E4C0E05D
:10482E0012AB50E58124FAF58112436E90F008E444
:10483E0093F5821244077494C0E074C6C0E074808D
:10484E00C0E07408C0E07405C0E0E4C0E012AB50F4
:10485E00E58124FAF58112436E9017A9E09017AA0C
:10486E00F09017ABE0FFBF1E028008BF2902801B2D
:10487E00024B9890167EE0B40100E43390167EF061
:10488E0012861C9017AAE4F0024B989017A9740197
:10489E00F0024B989017AAE0FFBF060302499174ED
:1048AE00A4C0E074C6C0E07480C0E07408C0E074B8
:1048BE0005C0E0E4C0E012AB50E58124FAF58112A8
:1048CE00436E74B4C0E074C6C0E07480C0E0740877
:1048DE00C0E07405C0E0E4C0E012AB50E58124FAFC
:1048EE00F58112436E74C6C0E074C6C0E07480C019
:1048FE00E07408C0E07405C0E0E4C0E012AB50E51F
:10490E008124FAF58112436E74D7C0E074C6C0E0FC
:10491E007480C0E07408C0E07405C0E0E4C0E0122A
:10492E00AB50E58124FAF58112436E74ECC0E0744D
:10493E00C6C0E07480C0E07408C0E07405C0E0E456
:10494E00C0E012AB50E58124FAF58112436E90F06F
:10495E0009E493F5821244077494C0E074C6C0E073
:10496E007480C0E07408C0E07405C0E0E4C0E012DA
:10497E00AB50E58124FAF58112436E9017A9E090B1
:10498E0017AAF09017ABE0FFBF1E028019BF1F02DF
:10499E008018BF20028044BF2103024B68BF290349
:1049AE00024B7F024B98C2A980FE74FDC0E074C614
:1049BE00C0E07480C0E07408C0E07405C0E0E4C0DC
:1049CE00E012AB50E58124FAF58112436E9017A5E3
:1049DE007401F09017A904F0024B98901662E0FF54
:1049EE007E00C007C0067425C0E074C7C0E07480A6
:1049FE00C0E07408C0E07405C0E0E4C0E012AB5043
:104A0E00E58124F8F58112436E901664E0FF7E0076
:104A1E00C007C0067438C0E074C7C0E07480C0E040
:104A2E007408C0E07405C0E0E4C0E012AB50E5814C
:104A3E0024F8F58112436E901665E0FF7E00C007E4
:104A4E00C006744BC0E074C7C0E07480C0E0740848
:104A5E00C0E07405C0E0E4C0E012AB50E58124F87C
:104A6E00F58112436E901666E0FF7E00C007C00609
:104A7E00745EC0E074C7C0E07480C0E07408C0E02B
:104A8E007405C0E0E4C0E012AB50E58124F8F58176
:104A9E0012436E901667E0FF7E00C007C006747169
:104AAE00C0E074C7C0E07480C0E07408C0E0740554
:104ABE00C0E0E4C0E012AB50E58124F8F58112436A
:104ACE006E7484C0E074C7C0E07480C0E07408C027
:104ADE00E07405C0E0E4C0E012AB50E58124FAF5C5
:104AEE008112436E7F00BF20005068EF540F702775
:104AFE00C0077495C0E074C7C0E07480C0E074084D
:104B0E00C0E07405C0E0E4C0E012AB50E58124FAC9
:104B1E00F58112436ED007EF2411F582E43406F5C9
:104B2E0083E0FE7D00C007C006C0057497C0E07428
:104B3E00C7C0E07480C0E07408C0E07405C0E0E453
:104B4E00C0E012AB50E58124F8F58112436ED00718
:104B5E000F80939017A9E4F0803090167FE0B40197
:104B6E0000E43390167FF012861C9017AAE4F080B2
:104B7E00199017A97401F080119017ABE0FFBF29AF
:104B8E00099017A9E4F09017A5F09017ABE4F02266
:104B9E007F00E5C120E62E7F01900607E02401F09C
:104BAE00A3E03400F0900607E0FDA3E0FEC3748896
:104BBE009D74139E5016C0078508828509831200C6
:104BCE0011D0078007900607E4F0A3F09017ADE030
:104BDE00FDA3E0FE4D7010EF7001229017AD740131
:104BEE002DF0E43EA3F0228D038E04C3E49B74806B
:104BFE008CF063F08095F05017C3EB9419EC648041
:104C0E009480500C9017AD74012DF0E43EA3F02269
:104C1E00C3EB9419EC64809480404BEB94D0EC641D
:104C2E008094875041EF70329017A9E0FABA0202D1
:104C3E00801D901680E0FA0A901680EAF0EA24FDB4
:104C4E005005901680E4F012861C90063AE4F0901F
:104C5E0017AD74E7F074FFA3F0229017AD74012D19
:104C6E00F0E43EA3F022BBD013BC07109017A6743D
:104C7E0001F09017AD2DF0E43EA3F022C374D09B4B
:104C8E0074878CF063F08095F0500EEF701A9017C9
:104C9E00AD74E7F074FFA3F022EC30E70B9017AD84
:094CAE0074012DF0E43EA3F02294
:10C5B2005965730A004E6F0A000A0A4849446D61C0
:10C5C2006E2076312E312E340A0A00312E204B6530
:10C5D200790A00322E204D6F7573650A00332E20C2
:10C5E20047616D650A000A342E204164762E0A0ADC
:10C5F2000045534320746F2065786974206D656E21
:10C60200750A0A00476F6F646279650A000A4B6512
:10C6120079626F6172640A0A00312E204164766188
:10C622006E63656420555342202D2000322E20383F
:10C6320031204B6579204D6F6465202D20000A451D
:10C6420053432E204D61696E204D656E750A000AB6
:10C652004D6F7573650A0A00322E20496E74656C3F
:10C662006C696D6F757365202D20000A47616D65D9
:10C6720020436F6E74726F6C6C6572730A0A0031BC
:10C682002E20557365206173204D6F757365202DC3
:10C6920020000A455343206D61696E206D656E75F9
:10C6A2000A000A0A2D2D0A416476616E6365640AE6
:10C6B2000A00312E20466163746F727920526573CD
:10C6C20065740A00322E204C6F672048494420448A
:10C6D2006174610A00332E20505332206D6F7573DE
:10C6E20065207374617475730A00342E2053657269
:10C6F20069616C204C6F67202D20004C6F67676961
:10C702006E672048494420446174612E205072654E
:10C7120073732045534320746F2073746F702E2EF1
:10C722002E0A00547970652020202020202020200D
:10C73200202025750A0052617465202020202020C7
:10C74200202020202025750A005265736F6C7574B5
:10C75200696F6E202020202025750A005363616CCA
:10C76200696E67202020202020202025750A0044A1
:10C77200617461207265706F7274696E67202575CD
:10C782000A000A436F6D6D616E64206275666665AC
:0BC79200720A000A0025303258200017
:0AD4420000000001000000040000DB
:104CB7009017AFE0FEA3E0FFC3E49E74808FF0631C
:104CC700F08095F050149017AFE0FEA3E0FF901727
:104CD700AF74012EF0E43FA3F0229017AFE0A3E0FA
:104CE70030E7159017AFE0FEA3E0FF1EBEFF011FE0
:104CF7009017AFEEF0EFA3F0229017AFE0FEA3E01E
:104D0700FF9017B2E0FCA3E0FDC3EC9EED64808F3B
:104D1700F063F08095F0500DC28C9017AF74FFF0E0
:104D2700A3F0D28C229017AFE0FEA3E0FF9017B458
:104D3700E0FCA3E0FDC3EE9CEF64808DF063F080A0
:104D470095F0505890F00AE493701F9017B1E075F2
:104D5700F003A424E3F58274CD35F0F583E493FDE5
:104D6700A3E493FEA3E493FF801D9017B1E075F0D1
:104D770003A42483F58274D035F0F583E493FDA36F
:104D8700E493FEA3E493FF8D828E838FF01269B7BD
:104D9700C28C9017AF74FFF0A3F0D28C22C00D85A0
:104DA700810DC082C083C0F0E581241CF581A80D68
:104DB70008740526FAE40836FB0886048A828B8382
:104DC7008CF012AD14FFBF0502800302514AA80DF3
:104DD70008740126FDE40836FE0886078D828E8357
:104DE7008FF0E50D2404F812AD14F6A312AD1408E4
:104DF700F6A80D08740926FDE40836FE0886078D17
:104E0700828E838FF012AD14FD7F00E50D2404F828
:104E17008606088604ED2EFDEF3CFF8D038F02A862
:104E27000D08740426FDE40836FE0886078D828E79
:104E3700838FF0E50D241CF812AD14F6E50D24045C
:104E4700F8E50D2408F9E6F708E609F7A80D08E5DF
:104E57000D240AF9740326F7E4083609F708E6096A
:104E6700F7E50D24FBF8E50D240DF9E6F708E6094B
:104E7700F708E609F7E50D240DF8E50D2410F97498
:104E87002726F7E4083609F708E609F7E50D240DA4
:104E9700F8E50D2413F9E6F708E609F708E609F738
:104EA700E50D240DF8E50D2416F9740726F7E40837
:104EB7003609F708E609F7E50D2410F8E50D24197A
:104EC700F9E6F708E609F708E609F7E50D2408F813
:104ED700C3E69B08E69A40030257187C00E50D24B9
:104EE70008F8860508E6C423CDC423541F6DCD54A6
:104EF7001FCD6DCDFFE50D24F8F8ED26FDEF083643
:104F0700FE0886078D828E838FF012AD14FDE50DA6
:104F17002408F886075307078FF005F0E50D2406E8
:104F2700F87601087600188008E626F608E633F6D4
:104F370018D5F0F57F00E50D2406F8E6520508E6DA
:104F47005207ED4F60027C01E50D240AF8868208BE
:104F570086830886F012AD1460030250B3EC700329
:104F6700025037E50D241CF8E6C423541FFDE50D58
:104F77002416F8E50D241DF9ED26F7E4083609F7A0
:104F870008E609F7E50D241CF8860774075FF5F0B6
:104F970005F07401800225E0D5F0FBFFE50D241D27
:104FA700F886820886830886F012AD144207E50D5D
:104FB700241DF886820886830886F0EF12A768E525
:104FC7000D2419F8ED26FEE40836FD088604E50DE4
:104FD700241CF8740756FF8FF005F0E50D2406F83A
:104FE7007601087600188008E626F608E633F618F4
:104FF700D5F0F58E828D838CF012AD14FD7F00E520
:105007000D2406F8E6520508E65207ED4F60030245
:105017005136E50D2413F8740626FDE40836FE081C
:1050270086078D828E838FF0740112A7680251362E
:10503700E50D241CF8E6C423541FFFE50D2410F8E2
:10504700EF26FEE40836FD088604E50D241CF874F7
:105057000756FF8FF005F0E50D2406F87601087670
:1050670000188008E626F608E633F618D5F0F58E20
:10507700828D838CF012AD14FD7F00E50D2406F8B8
:10508700E6520508E65207ED4F7003025136E50D6B
:10509700240DF8740626FDE40836FE0886078D827F
:1050A7008E838FF0740112A768025136E50D241C18
:1050B700F8E624FA4079E50D241CF8E6269050C856
:1050C70073806C8008801A802C803E8050C003C09B
:1050D70002C004758200127DFB1581D002D00380C7
:1050E7004EC003C002C004758201127DFB1581D03A
:1050F70002D003803AC003C002C004758202127D49
:10510700FB1581D002D0038026C003C002C00475FE
:105117008203127DFB1581D002D0038012C003C029
:1051270002C004758204127DFB1581D002D003E50D
:105137000D241CF806E50D2408F806B6000208063B
:10514700024ED2C002C003C004A80D08740126FD98
:10515700E40836FE0886078D828E838FF012AD1421
:10516700FDA312AD148D04C423CCC423541F6CCCEF
:10517700541FCC6CCCFFE50D24F8F8EC26FCEF08A7
:1051870036FF088603A80D08E50D241DF9740A26C5
:10519700F7E4083609F708E609F78C828F838BF066
:1051A70012AD14FC74075DF5F005F0EC8002C31333
:1051B700D5F0FBFCA80D08740826FDE40836FE08A8
:1051C70086078D828E838FF012AD14FD90C7E5930D
:1051D7005204E50D241DF886820886830886F0ECC4
:1051E70012A768A80D08E50D2419F9740326F7E43A
:1051F700083609F708E609F7E50D2419F886820845
:1052070086830886F012AD14D004D003D002701F35
:10521700E50D24FBF8860508860608860774062D23
:10522700FDE43EFE8D828E838FF0740112A7688A9B
:10523700828B838CF012AD14FFE4BF020104FE6081
:105247003CE50D241DF886820886830886F012AD9A
:1052570014FDA80D08740626FAE40836FB08860430
:105267008A828B838CF012AD14FAA312AD14FB7CE7
:1052770000C3EA9DEB9C5005D200025303BF013BDC
:10528700E50D241DF886820886830886F012AD1482
:10529700FDA80D08740626FAE40836FB0886048A7A
:1052A700828B838CF012AD14FAA312AD14FB7C0031
:1052B700C3ED9AEC9B5004D2008041BF063CE50D3C
:1052C700241DF886820886830886F012AD14FDA88F
:1052D7000D08740626FAE40836FB0886048A828BD2
:1052E700838CF012AD14FAA312AD14FB7C00EDB55C
:1052F7000208ECB50304D2008002C200E50D2419B0
:10530700F886820886830886F012AD14FDBD010376
:10531700ED8001E4FC70030253F5EE70030253F5D0
:10532700A80D08740426FAE40836FB0886068A8264
:105337008B838EF012AD14FE24FA5003025718EE39
:105347002E2E90534D7302571802535F02537D025E
:10535700539B0253B90253D7E50D241DF8868208E3
