:1000C600AF82A2AFE433FEC2AF90172CEFF0EE245E
:1000D600FF92AF22AF827E00EF30E0027E04EF3067
:1000E600E1098E047D004304018C06EF30E2098E9F
:1000F600057F004305028D068E820200C6A2AFE48C
:1001060033FFC2AF90172CE0FEEF24FF92AF8E8232
:1001160022120103AF8290172DE0B50701228F82CC
:0D012600C0071241F2D00790172DEFF02214
:02D435000000F5
:10009A009002327401F07402A3F0900246E4F0A3D5
:0300AA00F0A3F0D0
:10013300AD82AE83AFF012AD80FC0DBD00010E8D1C
:10014300828E838FF012AD80FFE4FDFEEC4205EE5C
:1001530042078D828F8322C00D85810DC082C083AB
:10016300C0F0E5812404F581A80D08868208868302
:100173000886F012AD80FCE50D2404F8A604087689
:1001830000087600087600A80D08740126FDE4082F
:1001930036FE0886078D828E838FF012AD80FD7F39
:1001A300007E008E048F068D077D00E50D2404F884
:1001B300ED46F6EF0846F6EE0846F6EC0846F6A8D6
:1001C3000D08740226FAE40836FB0886078A828B38
:1001D300838FF012AD80FA7F008F058A06E4FAFF61
:1001E300E50D2404F8EA46F6EF0846F6EE0846F66F
:1001F300ED0846F6A80D08740326FBE40836FC0850
:1002030086078B828C838FF012AD80FDE4FBFFFEAB
:10021300E50D2404F8E6420308E6420708E6420631
:1002230008E642058B828F838EF0ED850D81D00D1C
:1002330022AD82AE83AFF074022DFAE43EFB8F044D
:100243008A828B838CF012AD80FCBC0102800ABCD5
:1002530002028026BC046D804574052DFAE43EFB42
:100263008F048A828B838CF012AD80F97A007B0035
:100273007C0089828A838BF0EC2274052DFAE43E9C
:10028300FB8F048A828B838CF012AD80FAA312ADAC
:1002930080F97B007C008A8289838BF0EC227405D1
:1002A3002DFDE43EFE8D828E838FF012AD80FDA383
:1002B30012AD80FEA312AD80FFA312AD808D828E9E
:1002C300838FF022900000E4F5F022AD82AE83AF7D
:1002D300F074022DFAE43EFB8F048A828B838CF048
:1002E30012AD80FCBC0102800ABC02028024BC0463
:1002F3006A804274052DFAE43EFB8F048A828B8365
:100303008CF012AD80F93395E0FAFB89828A838BF6
:10031300F02274052DFAE43EFB8F048A828B838CD2
:10032300F012AD80FAA312AD80F93395E0FB8A8217
:1003330089838BF02274052DFDE43EFE8D828E832E
:100343008FF012AD80FDA312AD80FEA312AD80FF2E
:10035300A312AD808D828E838FF022900000E4F58E
:10036300F022C00DE581F50D240FF581AD82AE833A
:10037300AFF0E50D24FBF8E6C39DFB08E69EFCC346
:10038300E49B74808CF063F08095F040099000004A
:1003930075F0000207368D828E838FF012AD80FCDC
:1003A300E50D240DF874012DF6E43E08F608A607C2
:1003B300900200ECF0E50D24F8F8E50D2404F9E6CD
:1003C300F70809E6F70809E6F7E50D2404F87403CE
:1003D30026FFE40836FE088605EC0303543FFC536E
:1003E30004038F828E838DF0EC12A78FE50D240416
:1003F300F8740426FFE40836FE088605900200E040
:10040300C4540FFC53040F8F828E838DF0EC12A71C
:100413008FBC0F028003020547E50D2404F8868292
:100423000886830886F0740112A78FA3E412A78FAE
:10043300E50D24FBF8E50D240DF9E6C397FB08E66B
:100443000997FCC3EB9402EC6480948050099000FC
:100453000075F000020736E50D2404F8E50D2407C6
:10046300F9740226F7E4083609F70809E6F7E50DFB
:10047300240DF886820886830886F012AD80FBE59A
:100483000D240DF8A90D09740126F7E4083609F7C0
:100493000809E6F7E50D2407F886820886830886AF
:1004A300F0EB12A78FA80D0886820886830886F0D2
:1004B30012AD80FCA80D0806B6000208068F828ED6
:1004C300838DF0EC12A78FE50D24FBF8A90D09E647
:1004D300C397FF08E60997FE8B027C00C3EF9AEEF1
:1004E30064808CF063F08095F0500990000075F003
:1004F30000020736E50D2404F8740526FAE40836ED
:10050300FB0886048A828B838CF0A80D08E612A769
:100513008FA308E612A78FA308E612A78FE50D2481
:1005230007F886820886830886F012AD80FCA80D42
:1005330008EC26FCE40836FB0886028C828B838A4F
:10054300F0020736E50D2404F886820886830886C0
:10055300F0E412A78FA312A78FE50D2404F8740209
:1005630026FAE40836FB088604900200E05403FFF1
:100573008A828B838CF012A78F8A828B838CF012F2
:10058300AD80FEEF24FC5003020736EE2E2E9005BD
:1005930095730205A10205B10206260206A5E50D23
:1005A300240DF886820886830886F0020736E50D57
:1005B30024FBF8E50D240DF9E6C397FE08E6099739
:1005C300FFC3EE9401EF648094805009900000759E
:1005D300F000020736E50D2404F8740526FCE40850
:1005E30036FB088602E50D240DF88682088683080B
:1005F30086F0E50D240AF912AD80F7E50D240DF818
:10060300740126FDE40836FE0886078C828B838AF4
:10061300F0E50D240AF8E612A78F8D828E838FF002
:10062300020736E50D24FBF8E50D240DF9E6C39723
:10063300FE08E60997FFC3EE9402EF6480948050AE
:100643000990000075F000020736E50D2404F874E4
:100653000526FDE40836FC088603E50D240DF8861F
:10066300820886830886F0C005C004C003120133E4
:10067300AE82AF83D003D004D0058D828C838BF000
:10068300EE12A78FA3EF12A78FE50D240DF87402C6
:1006930026FDE40836FE0886078D828E838FF002DE
:1006A3000736EE048A828B838CF012A78FE50D2424
:1006B300FBF8E50D240DF9E6C397FE08E60997FF5D
:1006C300C3EE9404EF64809480500890000075F0AA
:1006D300008060E50D2404F8A90D09740526F7E4EC
:1006E300083609F70809E6F7E50D240DF8868208B0
:1006F30086830886F012015AAA82AB83ACF0FFA866
:100703000D0886820886830886F0EA12A78FA3EB7A
:1007130012A78FA3EC12A78FA3EF12A78FE50D24C7
:100723000DF8740426FDE40836FE0886078D828ED4
:10073300838FF0850D81D00D22C00DE581F50D2449
:1007430016F581AD82AE83AFF0E50D240FF8760088
:1007530074172DFDE43EFEE50D2413F87600E50D38
:100763002413F8B612004003020A538D828E838F3E
:10077300F012AD80FAA312AD80FBA312AD80FCC0D2
:1007830007C006C005E50D2413F8E6C0E08A828B96
:10079300838CF0129D11AA82AB83ACF01581D00536
:1007A300D006D007E50D2414F8A60208A60308A670
:1007B30004E50D2414F8E608467003020A4AC0054E
:1007C300C006C007E50D2414F8744726FAE408367A
:1007D300FB0886078A828B838FF0E50D240CF812C1
:1007E300AD80F6A312AD8008F6A312AD8008F6E53E
:1007F3000D2414F8740426FDE40836FE0886078DDC
:10080300828E838FF012AD80FDA312AD80FEE50DC5
:100813002414F886820886830886F012AD80FBA331
:1008230012AD80FFE50D2413F886027C00C007C0DB
:1008330006C005C005C006C003C007C002C00474DB
:100843009EC0E074C0C0E07480C0E012AD47E58193
:1008530024F7F581D005D006D007E50D240FF8E580
:100863000D2409F9E6F7D007D006D005E50D240CD1
:10087300F8E608467003020A3EC005C006C007E555
:100883000D240CF8740126FAE40836FB0886048A62
:10089300828B838CF012AD80FAA312AD80FBA3127E
:1008A300AD80FCE50D2410F8A60208A60308A604F3
:1008B300E50D2410F8740926FDE40836FE088607C2
:1008C3008D828E838FF012AD80FD7F00E50D2410A5
:1008D300F8740826FBE40836FC0886068B828C83B2
:1008E3008EF012AD80FBE50D2405F8A60308760013
:1008F300E50D2410F8740426FAE40836FC0886068D
:100903008A828C838EF012AD80FAE50D2407F8A657
:1009130002087600E50D2410F8740326FBE408367C
:10092300FC0886068B828C838EF012AD80FBE50D6E
:10093300240AF8A603087600E50D2410F8740626A9
:10094300FAE40836FC0886068A828C838EF0E50D6D
:100953002403F812AD80F6A312AD8008F6E50D244A
:1009630010F8740526FBE40836FC0886068B828C97
:10097300838EF012AD80FBA80D08A603087600E570
:100983000D2410F8740126FAE40836FC0886068A5A
:10099300828C838EF012AD80FAA312AD80FCC00767
:1009A300C006C005C005C007E50D2405F8E6C0E094
:1009B30008E6C0E0E50D2407F8E6C0E008E6C0E07D
:1009C300E50D240AF8E6C0E008E6C0E0E50D2403DF
:1009D300F8E6C0E008E6C0E0A80D08E6C0E008E6D7
:1009E300C0E0C002C00474C0C0E074C0C0E0748042
:1009F300C0E012AD47E58124EFF581D005D006D0E4
:100A030007E50D240CF8740426FDE40836FE088679
:100A1300078D828E838FF0E50D240CF812AD80F6DE
:100A2300A312AD8008F6A312AD8008F6E50D2409E4
:100A3300F806D007D006D00502086FE50D2409F8A3
:100A4300E50D240FF9E6F7E50D2413F80602076117
:100A5300E50D240FF88682850D81D00D22C00DE5AA
:100A630081F50D240AF581AD82AE83AFF090023D8E
:100A7300E4F0A3F0A3F0900217F0A3F0900219F0B2
:100A8300A3F090021BF0A3F0900229F090022AF049
:100A930090022BF0C007C006C0057428C0E0E4C074
:100AA300E0C0E090020175F00012ACA7158115813A
:100AB3001581D005D006D00790021374FFF0A3F080
:100AC300E4A3F0A3F090020F14F0A3F0E4A3F0A3C7
:100AD300F090022CEDF0EEA3F0EFA3F0E50D24FC73
:100AE300F890022FE62DF008E63EA3F0EFA3F09076
:100AF300021DE4F0E50D24F9F8E50D2407F9E6F706
:100B03000809E6F70809E6F7E50D2407F8E50D24DB
:100B130004F9E6F70809E6F70809E6F790022CE07E
:100B2300FAA3E0FBA3E0FC7434C0E07402C0E0E489
:100B3300C0E090022FE0C0E0A3E0C0E0A3E0C0E08B
:100B43008A828B838CF0120365AA82AB83ACF0E5B7
:100B53008124FAF58190022CEAF0EBA3F0ECA3F0E8
:100B6300EA4B7003021208900234E0FBA3E0FC4B53
:100B73006003021208900237E0FC600FBC0103021D
:100B83000ECDBC020302112C0211D3900238E0FCFB
:100B9300BC08028003020E3A90021BE0FAA3E0FBBA
:100BA300BA0105BB00028003020DAC900219E0FA02
:100BB300A3E0FBBA0405BB00028033900219E0FAFC
:100BC300A3E0FBBA0505BB00028023900219E0FAFB
:100BD300A3E0FBBA0605BB00028013900219E0FAFA
:100BE300A3E0FBBA0205BB00028003020DAC900236
:100BF3003DE0F5F0A3E045F06003020D0DE50D24A3
:100C030007F8741726FCE40836FB088602900232C4
:100C1300E0FDA3E0FE74072DF582E43EF583E50DC8
:100C2300240AF8E0F68C828B838AF012AD80FDA350
:100C330012AD80FEA312AD80FFC004C003C002E565
:100C43000D240AF8E6C0E0744AC0E0E4C0E08D82F7
:100C53008E838FF0129C22AD82AE83AFF015811587
:100C6300811581D002D003D0048C828B838AF0ED6E
:100C730012A78FA3EE12A78FA3EF12A78F0DBD00AC
:100C8300010E8D828E838FF012AD80FDA312AD8095
:100C9300FEA312AD80FF90023DEDF0EEA3F0EFA3B3
:100CA300F074022DFDE43EFE90021BE0FAA3E0FB8C
:100CB3008D828E838FF0EA12A78FA3EB12A78F90FA
:100CC300023DE0FDA3E0FEA3E0FF900219E0FAA3DA
:100CD300E0FB8D828E838FF0EA12A78FA3EB12A71E
:100CE3008F900219E0FEA3E0FFBE0405BF0002805F
:100CF3000E900219E0FEA3E0FFBE050EBF000B90AD
:100D0300021DE0FF0F90021DEFF090023475F0001A
:100D1300120234AB82AD83AEF0FFEB20E103020D90
:100D23009C900228E06012E50D2407F8868208866D
:100D3300830886F01299C0807090020FE0FBA3E055
:100D4300FDA3E0FEA3E0FFBBFF0BBDFF08BE000554
:100D5300BF00028054900213E0FBA3E0FDA3E0FE7A
:100D6300A3E0FFBBFF0BBDFF08BE0005BF00028071
:100D730038900232E0FEA3E0FF74082EF582E43FD0
:100D8300F583E0FFBF0122E50D2407F8868208867C
:100D9300830886F01297EF8010E50D2407F886820A
:100DA3000886830886F0129B77900217A80D08E047
:100DB300F6A3E008F6900232E0FBA3E0FD74082BF3
:100DC300F582E43DF583E0FA7F0074092BF582E4B4
:100DD3003DF583E0FE7D00C006C0058A828F831245
:100DE300A917AE82AF8315811581A80D08EE26FEE3
:100DF300EF0836FF900217EEF0EFA3F090023DE00C
:100E0300FDA3E0FEA3E0FF90023DE0F5F0A3E04583
:100E1300F07003020EA374042DFDE43EFE9002174E
:100E2300E0FAA3E0FB8D828E838FF0EA12A78FA3F3
:100E3300EB12A78F020EA3BC0A4D90022BE02401F4
:100E4300F090023475F000120234AB82AD83AEF041
:100E5300FFBB014CBD0049BE0046BF004390020BDF
:100E6300E0FEA3E0FF900219EEF0EFA3F090023250
:100E7300E0FEA3E0FF8E828F83E0FE7F0090021BE3
:100E8300EEF0EFA3F08019BC0C1690022BE014F0E7
:100E9300E0700D900219E4F0A3F090021BF0A3F0B0
:100EA300900228E4F090020BF0A3F0A3F0A3F090DB
:100EB300021314F0A3F0E4A3F0A3F090020F14F0D4
:100EC300A3F0E4A3F0A3F00211D3900238E0FF24CF
:100ED300F650030211D3EF240A83F582EF240E8325
:100EE300F583E4730381AF1040D3D3A3FBD3110F76
:100EF3000F10101111100E10E50D2404F8741626AE
:100F0300FDE40836FE0886078D828E838FF0740118
:100F130012A78F900217E4F0A3F0900217E0FEA34C
:100F2300E0FF900236E0FDE4C40354F8CDC403CDE2
:100F33006DCD54F8CD6DFCED2EFEEC3FFF90021706
:100F4300EEF0EFA3F0900232E0FEA3E0FF74072E71
:100F5300FEE43FFF90023475F000C007C0061202A2
:100F630034AA82AB83ACF0FDD006D0078E828F8388
:100F7300EAF090023DE4F0A3F0A3F00211D3900253
:100F830032E0FEA3E0FF0EBE00010F90023475F0C5
:100F930000C007C0061202CEAA82AB83ACF0FDD01C
:100FA30006D0078E828F83EAF00211D3900232E0DB
:100FB300FEA3E0FF8E828F83A3E030E728A80D080D
:100FC30074022EF6E43F08F690023475F000120224
:100FD300CEAA82AB83ACF0FDA80D08868208868377
:100FE300EAF00211D374022EFEE43FFF900234753F
:100FF300F000C007C006120234AA82AB83ACF0FD36
:10100300D006D0078E828F83EAF00211D39002328A
:10101300E0FEA3E0FF74032EFEE43FFF900234756D
:10102300F000C007C0061202CEAA82AB83ACF0FD6B
:10103300D006D0078E828F83EAF00211D39002325A
:10104300E0FEA3E0FF8E828F83A3A3A3E030E72813
:10105300A80D0874042EF6E43F08F690023475F0E8
:10106300001202CEAA82AB83ACF0FDA80D088682E3
:10107300088683EAF00211D374042EFEE43FFF9046
:10108300023475F000C007C006120234AA82AB8393
:10109300ACF0FDD006D0078E828F83EAF00211D325
:1010A300900232E0FEA3E0FF74082EFEE43FFF90BF
:1010B300023475F000C007C006120234AA82AB8363
:1010C300ACF0FDD006D0078E828F83EAF00211D3F5
:1010D300900232E0FEA3E0FF74092EFEE43FFF908E
:1010E300023475F000C007C006120234AA82AB8333
:1010F300ACF0FDD006D0078E828F83EAF00211D3C5
:10110300900232E0FEA3E0FF90023475F000C007C6
:10111300C006120234AA82AB83ACF0FDD006D0071E
:101123008E828F83EAF00211D3900238E0FF705C65
:10113300900234F5F0120234AB82AC83ADF0FE9032
:10114300020BEBF0ECA3F0EDA3F0EEA3F09002287A
:10115300E0FEBE0A0040030211D3EE241EFFE43476
:1011630002FD90023475F000C007C005120234AAD4
:1011730082AB83ACF0D005D0078F828D83EAF090E9
:101183000228E0FE0E900228EEF08044BF0120907A
:10119300023475F000120234AB82AC83ADF0FE90E2
:1011A300020FEBF0ECA3F0EDA3F0EEA3F08021BF70
:1011B300021E90023475F000120234AC82AD83AE8D
:1011C300F0FF900213ECF0EDA3F0EEA3F0EFA3F029
:1011D30090022CE0FDA3E0FEA3E0FF90022FE0FAD3
:1011E300A3E0FBA3E0FCC002C003C0048D828E8396
:1011F3008FF01200131581158115816003020B1FF7
:101203007582018003758200850D81D00D22C00D8A
:1012130085810DC082C083C0F0E5812408F581E596
:101223000D24FDF8E624ED5006758200021422E534
:101233000D24FAF88602088603088604E50D2407C0
:10124300F874032AF6E43B08F608A604A80D08740C
:101253000726FDE40836FE0886078D828E838FF00D
:1012630012AD80FDE50D2407F88682088683088683
:10127300F0ED12A78FE50D2407F874022AF6E43B7C
:1012830008F608A604A80D08740426FDE40836FE33
:101293000886078D828E838FF012AD80FDE50D24C5
:1012A30007F886820886830886F0ED12A78FE50D7E
:1012B30024FDF8B61202800302141FE50D2407F87B
:1012C30074042AF6E43B08F608A604A80D0874087B
:1012D30026FDE40836FE0886078D828E838FF0E5AF
:1012E3000D2404F812AD80F6A80D08740926FDE458
:1012F3000836FE0886078D828E838FF012AD80FD3F
:10130300E50D2405F808A605187600E50D2404F874
:1013130086077E00E50D2405F8E6420708E6420647
:10132300E50D2407F886820886830886F0EF12A766
:101333008FA3EE12A78FE50D2407F874062AF6E4AF
:101343003B08F608A604A80D08740A26FDE408362F
:10135300FE0886078D828E838FF0E50D2405F81233
:10136300AD80F6A80D08740B26FDE40836FE08864A
:10137300078D828E838FF012AD80FDE50D240AF870
:1013830008A605187600E50D2405F886077E00E516
:101393000D240AF8E6420708E64206E50D2407F89D
:1013A30086820886830886F0EF12A78FA3EE12A722
:1013B3008F74082AFAE43BFBA80D08740C26FDE49D
:1013C3000836FE0886078D828E838FF0E50D240A8A
:1013D300F812AD80F6A80D08740D26FDE40836FE5C
:1013E3000886078D828E838FF012AD80FDE50D2474
:1013F30005F808A605187600E50D240AF886067F89
:1014030000E50D2405F8E6420608E642078A828BCA
:10141300838CF0EE12A78FA3EF12A78F758201853D
:101423000D81D00D22C00D85810DC082C083C0F017
:10143300E581240FF581A80D08740226FAE4083625
:10144300FB0886048A828B838CF012AD80FAA80D88
:1014530008740326FBE40836FC0886078B828C831A
:101463008FF012AD80FFE4FBFEEA4203EE42078BEE
:1014730006E50D24FCF8C3E69E08E69F500AE50D39
:1014830024FCF88606088607C006C007E50D24F984
:10149300F8E50D2407F9E6F70809E6F70809E6F782
:1014A300E50D2407F8E50D240EF9740C26F7E4087E
:1014B3003609F70809E6F7A80D08740426FAE408C4
:1014C30036FE0886078A828E838FF012AD80FAE596
:1014D3000D240EF886820886830886F0EA12A78F09
:1014E300C374049AD007D0065012E50D240EF88673
:1014F300820886830886F0740412A78FC006C0078B
:10150300A80D088605088604088603A80D088682A8
:101513000886830886F012AD809002402DF0E43CEB
:10152300A3F0EBA3F0A80D0886820886830886F053
:1015330012AD80FFE50D2411F8A607087600D00749
:10154300D006E50D2411F88602088605C3EA9EED50
:101553009F4003021AA1C006C007900240E50D2474
:1015630004F8E0F6A3E008F6A3E008F6E50D24048A
:10157300F88602088606088607900243EAF0EEA37F
:10158300F0EFA3F00ABA00010E8A828E838FF01265
:10159300AD80FDBD04028007D007D00602179FE58A
:1015A3000D2404F886020886060886078A058E0439
:1015B3008F03900246EDF0ECA3F0EBA3F074022D41
:1015C300FAE43CFE8B078A828E838FF0E50D240DAF
:1015D300F812AD80F6E50D240EF88682088683089E
:1015E30086F012AD80FFE50D240DF8C3E69FD0070A
:1015F300D0064003021AA1C006C00774052DFAE401
:101603003CFE8B078A828E838FF012AD80FABA0379
:10161300028007D007D006021A47E50D2407F874A5
:101623000D26FAE40836FE0886078A828E838FF039
:1016330012AD80FBA312AD80FCA312AD80FDC007E9
:10164300C006C002E50D240DF8E6C0E0741AC0E040
:10165300E4C0E08B828C838DF0129C22AB82AC833E
:10166300ADF0158115811581D002D006D0078A828D
:101673008E838FF0EB12A78FA3EC12A78FA3ED122B
:10168300A78F0BBB00010C8B828C838DF012AD8076
:10169300FBA312AD80FCA312AD80FD90024FEBF0D3
:1016A300ECA3F0EDA3F08B828C838DF0C007C00612
:1016B300121CD5D006D007900246E0FDA3E0FEA39E
:1016C300E0FF74032DFDE43EFE8D828E838FF012C6
:1016D300AD80D007D0066003021A47C006C007904A
:1016E300024FE0FBA3E0FCA3E0FD74052BFBE43C0D
:1016F300FC8B828C838DF0E412A78F90024FE0FB6A
:10170300A3E0FCA3E0FD900246E0FAA3E0FEA3E021
:10171300FF74052AFAE43EFE8A828E838FF012ADAF
:10172300808B828C838DF012A78F90024FE0FDA3F4
:10173300E0FEA3E0FF74022DFDE43EFE900246E0CE
:10174300FAA3E0FBA3E0FC74072AFAE43BFB8A82DA
:101753008B838CF012AD808D828E838FF012A78FD6
:1017630090024FE0FDA3E0FEA3E0FF0DBD00010EDC
:10177300900246E0FAA3E0FBA3E0FC74062AFAE435
:101783003BFB8A828B838CF012AD80FA8D828E8331
:101793008FF012A78FD007D006021A47BD2102800F
:1017A30003021847C006C007E50D2404F8860308A2
:1017B3008604088605900249EBF0ECA3F0EDA3F054
:1017C30074062BFAE43CFE8D078A828E838FF01217
:1017D300AD80FABA22028007D007D006021A4790DA
:1017E300024FE0FAA3E0FEA3E0FFE50D240AF8743C
:1017F300032AF6E43E08F608A60774072BFAE43C2E
:10180300FE8D078A828E838FF012AD80FA74082BC7
:10181300FBE43CFC8B828C838DF012AD80FFE4FBF8
:10182300FEEA4203EE4207E50D240AF886820886A3
:10183300830886F0EB12A78FA3EF12A78FD007D0F0
:1018430006021A47BD05028003021A47E50D240468
:10185300F8860308860408860590024CEBF0ECA397
:10186300F0EDA3F090024FE0FBA3E0FCA3E0FDE565
:101873000D240AF874052BF6E43C08F608A605E5E2
:101883000D240AF886820886830886F012AD80FA52
:10189300BA04004003021A47C006C007900246E09C
:1018A300FDA3E0FEA3E0FF74032DFDE43EFE8D8265
:1018B3008E838FF012AD80D007D0066003021A47E3
:1018C300C006C0078A047D000AE50D240AF8868253
:1018D3000886830886F0EA12A78F90024FE0FAA3E6
:1018E300E0FBA3E0FF74062AFAE43BFBE50D240AC0
:1018F300F8EC2CF6ED3308F618E625E0F608E633A7
:10190300F6E50D240AF8E62AFA08E63BFB90024CBA
:10191300E0FCA3E0FDA3E0FE74022CFCE43DFD8C9F
:10192300828D838EF012AD80FC53047F8A828B8379
:101933008FF0EC12A78F90024CE0FDA3E0FEA3E032
:10194300FF74022DFDE43EFE8D828E838FF012AD77
:1019530080D007D00630E73590024FE0FBA3E0FCD0
:10196300A3E0FD74062BFBE43CFCE50D240AF8E63A
:101973002BFB08E63CFC74032BFBE43CFC8B828CC6
:10198300838DF012AD80440112A78F803390024FF4
:10199300E0FBA3E0FCA3E0FD74062BFBE43CFCE5C9
:1019A3000D240AF8E62BFB08E63CFC74032BFBE44E
:1019B3003CFC8B828C838DF012AD8054FE12A78F7A
:1019C300C006C00790024FE0FBA3E0FCA3E0FD7458
:1019D300062BFBE43CFCE50D240AF8E62BFB08E6AA
:1019E3003CFCE50D240AF874012BF6E43C08F608E8
:1019F300A60590024CE0FAA3E0FEA3E0FF74042ADC
:101A0300FBE43EFC8F058B828C838DF012AD80FB53
:101A130074052AFAE43EFE8A828E838FF012AD802B
:101A2300FFE4FAFEEB4202EE4207E50D240AF886D4
:101A3300820886830886F0EA12A78FA3EF12A78F86
:101A4300D007D006C006C007900243E0FBA3E0FC2A
:101A5300A3E0FD8B828C838DF0E50D240DF812AD90
:101A630080F6900240E0FAA3E0FEA3E0FFE50D2438
:101A73000DF8900240E62AF0E43EA3F0EFA3F08BCA
:101A8300828C838DF012AD80FB7F00E50D2411F86D
:101A9300EB26F6EF0836F6D007D006021545758219
:071AA30001850D81D00D2229
:10C09E005265706F72742025782C207573616765F8
:10C0AE002025782C206C656E6774682025753A20E3
:10C0BE000A0073746172746269742025752C20698C
:10C0CE0074202568782C2069702025782C206368D0
:10C0DE00616E202568782C20636F6E742025687839
:10C0EE002C2073697A65202568782C20636F756E15
:07C0FE0074202568780A0098
:0600AD007508007509F45E
:101AAA00AE82AF83EE4F602D05A105A105A105A168
:101ABA0005A105A105A105A105A105A105A105A1EC
:101ACA0005A105A105A105A105A105A105A11EBEA6
:101ADA00FF011F80CF22AE82AF8390172EE4F0A3BE
:101AEA00F0EE4F60159003E8C007C006121AAAD09C
:101AFA0006D0071EBEFF011F80E790172EE4F0A351
:101B0A00F022AE82AF8310990280FB8E998E828F6B
:101B1A008322AE82AF839017A5E07003021BCBC36A
:101B2A00EE9441EF648094809200403BC3745A9EC5
:101B3A0074808FF063F08095F0402C90F00AE49363
:101B4A0070067C227DCC80047C5B7DC97B808C8284
:101B5A008D838BF0C007C006C0201269BCE582D015
:101B6A0020D006D00760D48E058D82C007C006C07B
:101B7A0005C020126A8AD020D0058D82C020126A40
:101B8A00FDD020D006D007200037C3745A9E748037
:101B9A008FF063F08095F0402890F00AE493700685
:101BAA007C3D7DCD80047CCB7DCA7B808C828D83FD
:101BBA008BF0C007C0061269BCE582D006D0076068
:101BCA00D88E828F83229000002275BAF075C602E1
:101BDA0075BB007590F075BC20AEC64306048EC670
:101BEA0075BD0075A02075C20075C34075C000227E
:101BFA0075A15575A1AAAEB34306408EB353B37F00
:0E1C0A0053B3E0AEB34306068EB375B2D822D4
:03D43700000000F2
:101C1800C00D85810DAD82AE83AFF0900452E4F023
:101C2800A3F0900452E0FBA3E0FCE50D24FCF8C30C
:101C3800EB96EC08964003021CBDEB2DFBEC3EFC3A
:101C48008F028B828C838AF012AD80FB7C00C007E8
:101C5800C006C005C003C0047405C0E074C1C0E07C
:101C68007480C0E012AD47E58124FBF581D005D032
:101C780006D007900452E0FBA3E053030F7C00BB9F
:101C88000F24BC0021C007C006C005740BC0E07457
:101C9800C1C0E07480C0E012AD471581158115817F
:101CA800D005D006D007900452E02401F0A3E03418
:101CB80000F0021C2A740DC0E074C1C0E07480C03A
:101CC800E012AD47158115811581D00D22C00DE5B3
:101CD80081F50D2405F581AD82AE83AFF08D028EBE
:101CE800038F04C007C006C005741AC0E0E4C0E052
:101CF800C0E08A828B838CF012ACA7158115811500
:101D080081D005D006D0078D828E838FF0E412A78C
:101D18008F74022DFAE43EFB8F048A828B838CF049
:101D2800E412A78F74032DFAE43EFB8F048A828B9A
:101D3800838CF0E412A78FA312A78F74052DFAE401
:101D48003EFB8F048A828B838CF0E412A78FA80D48
:101D58000874062DF6E43E08F608A607E50D2404E7
:101D6800F8E4F608F6E50D2404F8C3E6940408E65A
:101D7800648094804003021E15C005C006C007E5B4
:101D88000D2404F8E625E0FC08E633FBEC2CFCEB1C
:101D980033FBA80D08EC26FDEB0836FE0886078DF8
:101DA800828E838FF0E412A78FA80D08EC26FDEB36
:101DB8000836FE08860774012DFAE43EFB8F048A74
:101DC800828B838CF0E412A78FA312A78F74032D44
:101DD800FAE43EFB8F048A828B838CF012AD804438
:101DE8000112A78F74032DFDE43EFE8D828E838F32
:101DF800F012AD8054FD12A78FE50D2404F806B645
:101E080000020806D007D006D005021D6D74162DF5
:101E1800FDE43EFE8D828E838FF0E412A78F850D40
:101E280081D00D22C00D85810DC082C083C0F0A86D
:101E38000D0886820886830886F0E50D24FDF9E7FB
:101E480012A78FA80D08740126FAE40836FB088645
:101E5800048A828B838CF0E50D24FCF8E612A78FA8
:101E6800A80D08740226FAE40836FB088604E50D76
:101E780024FAF886078A828B838CF0EF12A78FA842
:101E88000D08740326FDE40836FE088607E50D24D0
:101E9800FAF80886048D828E838FF0EC12A78FA83B
:101EA8000D08740426FDE40836FE088607E50D24AF
:101EB800F8F886048D828E838FF0EC12A78FA80D18
:101EC80008740526FDE40836FE088607E50D24F8A3
:101ED800F80886048D828E838FF0EC12A78FA80DE8
:101EE80008740626FDE40836FE088607E50D24F684
:101EF800F886048D828E838FF0EC12A78FA80D08C8
:101F0800740726FDE40836FE088607E50D24F6F872
:101F18000886048D828E838FF0EC12A78F850D8141
:101F2800D00D22C00D85810DAD82AE83AFF0C00704
:101F3800C006C005E50D24F9F8E6C0E008E6C0E0F3
:101F4800E4C0E0C0E0C0E004C0E07406C0E0748013
:101F5800C0E090045775F000121E2CE58124F8F5B6
:101F680081D005D006D00774032DFDE43EFE8D8296
:101F78008E838FF012AD80FD7455C0E07404C0E00C
:101F8800E4C0E0E50D24FBF8E6C0E008E6C0E008A0
:101F9800E6C0E0C00590045775F000128D4EAF8280
:101FA800E58124F9F581900454EFF0EF702EE50DEA
:101FB80024F6F8E608466024E50D24F6F8860508B8
:101FC8008606088607900455E0FBA3E0FC8D828E08
:101FD800838FF0EB12A78FA3EC12A78F900454E025
:101FE800F582D00D22C00D85810DAD82AE83AFF094
:101FF800C007C006C005E50D24F9F8E6C0E008E60C
:10200800C0E0E4C0E0C0E0C0E07402C0E07406C014
:10201800E07480C0E090046275F000121E2CE58127
:1020280024F8F581D005D006D00774032DFDE43ED1
:10203800FE8D828E838FF012AD80FD7460C0E074D7
:1020480004C0E0E4C0E0E50D24FBF8E6C0E008E6E3
:10205800C0E008E6C0E0C00590046275F000128D8B
:102068004EAF82E58124F9F58190045FEFF0EF70BF
:102078002EE50D24F6F8E608466024E50D24F6F86A
:102088008605088606088607900460E0FBA3E0FC46
:102098008D828E838FF0EB12A78FA3EC12A78F90FF
:1020A800045FE0F582D00D22C00D85810DAD82AEB2
:1020B80083AFF0E50D24FDF886037C00C007C00659
:1020C800C005E4C0E0C0E0C0E0C0E0C003C00474E4
:1020D80005C0E0E4C0E090046B75F000121E2CE52A
:1020E8008124F8F581D005D006D00774032DFDE4CE
:1020F8003EFE8D828E838FF012AD80FDE4C0E0C07D
:10210800E0C0E0C0E0C0E0C0E0C00590046B75F03E
:1021180000128D4EAF82E58124F9F58190046AEFB3
:10212800F0EF700AE50D24FDF88682128AE5900426
:102138006AE0F582D00D22C00D85810DAD82AE8397
:10214800AFF0E50D24FDF886037C00C007C006C08B
:1021580005E4C0E0C0E0C0E0C0E0C003C00474090A
:10216800C0E0E4C0E090047475F000121E2CE58114
:1021780024F8F581D005D006D00774032DFDE43E80
:10218800FE8D828E838FF012AD80FDE4C0E0C0E04A
:10219800C0E0C0E0C0E0C0E0C00590047475F00085
:1021A800128D4EAF82E58124F9F581900473EFF02A
:1021B8008F82D00D22C00D85810DAD82AE83AFF028
:1021C800C007C006C005E50D24F9F8E6C0E008E63A
:1021D800C0E0E4C0E0C0E0C0E07429C0E07406C01C
:1021E800E074A0C0E090047F75F000121E2CE58119
:1021F80024F8F581D005D006D00774032DFDE43E00
:10220800FE8D828E838FF012AD80FD747DC0E074E8
:1022180004C0E0E4C0E0E50D24FBF8E6C0E008E611
:10222800C0E008E6C0E0C00590047F75F000128D9C
:102238004EAF82E58124F9F58190047CEFF0EF70D0
:102248002EE50D24F6F8E608466024E50D24F6F898
:10225800860508860608860790047DE0FBA3E0FC57
:102268008D828E838FF0EB12A78FA3EC12A78F902D
:10227800047CE0F582D00D22C00D85810D05810515
:1022880081AD82AE83AFF0E50D24FDF886037C00B6
:10229800C007C006C0057404C0E0E4C0E0C003C0C5
:1022A80004C0E0C0E0C0E074A3C0E090048E75F004
:1022B80000121E2CE58124F8F581D005D006D00740
:1022C80074032DFDE43EFE8D828E838FF012AD8067
:1022D800FD7488C0E07404C0E0E4C0E0748AC0E023
:1022E8007404C0E0E4C0E0C00590048E75F00012EC
:1022F8008D4EAF82E58124F9F581900487EFF0EFE8
:10230800600302239BE50D24FAF8E60846603DE5E4
:102318000D24FAF8860508860608860790048BE0DF
:10232800FC7B00A80D0808A60418760090048AE033
:10233800FA7C00A80D08E6420208E642048D828E67
:10234800838FF0EA12A78FA3EC12A78FE50D24F76D
:10235800F8E60846603DE50D24F7F8860508860688
:1023680008860790048DE0FC7B00A80D0808A604E9
:1023780018760090048CE0FA7C00A80D08E642026A
:1023880008E642048D828E838FF0EA12A78FA3ECB1
:1023980012A78F900487E0F582850D81D00D22C0A9
:1023A8000D85810DC082C083C0F0E50D24FDF8863F
:1023B800047B00E50D24FCF88602E4FFC0E0C0E0E1
:1023C800C004C003C002C0077403C0E07423C0E0A7
:1023D80090049775F000121E2CE58124F8F581A869
:1023E8000D08740326FDE40836FE0886078D828EE4
:1023F800838FF012AD80FDE4C0E0C0E0C0E0C0E033
:10240800C0E0C0E0C00590049775F000128D4EAF93
:1024180082E58124F9F581900496EFF08F82850D8D
:1024280081D00D22C00D85810DC082C083C0F0E52A
:102438000D24FDF886047B00E50D24FCF88602E4F3
:10244800FFC0E0C0E0C004C003C002C00704C0E091
:102458007423C0E09004A075F000121E2CE58124BE
:10246800F8F581A80D08740326FDE40836FE0886F1
:10247800078D828E838FF012AD80FDE4C0E0C0E04E
:10248800C0E0C0E0C0E0C0E0C0059004A075F00066
:10249800128D4EAF82E58124F9F58190049FEFF00B
:1024A8008F82850D81D00D22C00D85810DAD82AE44
:1024B80083AFF0E50D24FDF886037C00C007C00655
:1024C800C005E50D24F8F8E6C0E008E6C0E0C00362
:1024D800C004E4C0E07422C0E07406C0E07481C0A7
:1024E800E09004AB75F000121E2CE58124F8F5810C
:1024F800D005D006D00774032DFDE43EFE8D828EF4
:10250800838FF012AD80FD74A9C0E07404C0E0E4CC
:10251800C0E0E50D24FAF8E6C0E008E6C0E008E609
:10252800C0E0C0059004AB75F000128D4EAF82E597
:102538008124F9F5819004A8EFF0EF702EE50D24C1
:10254800F5F8E608466024E50D24F5F886050886C2
:10255800060886079004A9E0FBA3E0FC8D828E8321
:102568008FF0EB12A78FA3EC12A78F9004A8E0F5C9
:1025780082D00D22C00D85810DAD82AE83AFF0E50E
:102588000D24FDF886037C00C007C006C005E4C022
:10259800E0C0E0C003C004E50D24FBF8E6C0E00895
:1025A800E6C0E0740BC0E07421C0E09004B475F09C
:1025B80000121E2CE58124F8F581D005D006D0073D
:1025C80074032DFDE43EFE8D828E838FF012AD8064
:1025D800FDE4C0E0C0E0C0E0C0E0C0E0C0E0C0058D
:1025E8009004B475F000128D4EAF82E58124F9F5A0
:1025F800819004B3EFF08F82D00D22C00D85810D3C
:10260800AD82AE83AFF0E50D24FDF886037C00C0F3
:1026180007C006C0057401C0E0E4C0E0C003C00400
:10262800C0E0C0E07403C0E074A1C0E09004BE75CF
:10263800F000121E2CE58124F8F581D005D006D0D3
:102648000774032DFDE43EFE8D828E838FF012AD5C
:1026580080FD7401C0E0E4C0E0C0E074BDC0E07477
:1026680004C0E0E4C0E0C0059004BE75F000128D1F
:102678004EAF82E58124F9F5819004BCEFF0900417
:10268800BDE0F582D00D22C00D85810DC082C083CA
:10269800C0F0E581240AF581E50D24FCF8860308DD
:1026A800E6C313CB13CBC313CB13CBE50D24FAF836
:1026B80086027C008B077B00E50D24FBF886057EEF
:1026C80000E50D2404F8ED4BF6EE4F08F6E50D2471
:1026D80006FEFB7D007F40C006E4C0E0C0E0C0020B
:1026E800C004E50D2404F8E6C0E008E6C0E0740A7A
:1026F800C0E07421C0E08B828D838FF0121E2CE520
:102708008124F8F581D006A80D08740326FCE40896
:1027180036FD0886078C828D838FF012AD80FC7F92
:10272800007D40E4C0E0C0E0C0E0C0E0C0E0C0E040
:10273800C0048E828F838DF0128D4EAF82E5812486
:10274800F9F5819004C6EFF08F82850D81D00D22B6
:10275800C00D85810DAD82AE83AFF0E50D24FDF887
:1027680086037C00C007C006C005E50D24F8F8E61E
:10277800C0E008E6C0E0C003C004E4C0E07402C0E2
:10278800E07409C0E07421C0E09004CA75F000123A
:102798001E2CE58124F8F581D005D006D0077403F6
:1027A8002DFDE43EFE8D828E838FF012AD80FD7488
:1027B800C8C0E07404C0E0E4C0E0E50D24FAF8E61F
:1027C800C0E008E6C0E008E6C0E0C0059004CA75AD
:1027D800F000128D4EAF82E58124F9F5819004C78F
:1027E800EFF08F82D00D229004D2E4F0A3F0900491
:1027F800D2E0FEA3E08E82128A919004D2E02401F6
:10280800F0A3E03400F09004D2E0FEA3E0FFC3EEB2
:102818009402EF6480948040D522C00DE581F50DC7
:102828002407F581AD82AE83AFF09004D4E4F07450
:102838000C2DFAE43EFB8F048A828B838CF012AD58
:1028480080FA9004DAF0E4A3F09004D6F0A3F074D0
:102858000D2DFDE43EFEC005C006C0079004D6E07D
:10286800FBA3E0FC9004DAE0FAA3E0FFC3EB9AECE8
:1028780064808FF063F08095F0D007D006D00540D3
:1028880003022ADBA80D08A6038D828E838FF0121F
:10289800AD80FAA312AD80FBA312AD80FCC007C0C7
:1028A80006C005A80D08E6C0E08A828B838CF0126A
:1028B8009D11AA82AB83ACF01581D005D006D00754
:1028C800E50D2405F8A60208A60308A604E50D24CC
:1028D80005F8E608467003022ACCC005C006C00702
:1028E800E50D2405F886820886830886F012AD80F7
:1028F800FFBF03028009D007D006D005022ACCE525
:102908000D2405F8740526FDE40836FE0886078DB3
:10291800828E838FF012AD809004DCF0E4A3F090F7
:1029280004D8F0A3F0E50D2405F8A90D09097406EB
:1029380026F7E4083609F70809E6F7D007D006D0E5
:1029480005C005C006C0079004D8E0FCA3E0FB90D2
:1029580004DCE0FEA3E0FFC3EC9EEB64808FF06331
:10296800F08095F0D007D006D0054003022ACCC0ED
:1029780005C006C007EC2CFEEB33FFEE2EFEEF334E
:10298800FFA80D0808EE26FEEF0836FF0886058E1C
:10299800048F038D0274032CFDE43BFE8A078D82AD
:1029A8008E838FF012AD805401FDBD01028009D0E5
:1029B80007D006D005022ABDD007D006D005C0072B
:1029C800C006C005E4C0E0C0E074DEC0E07404C026
:1029D800E0E4C0E07452C0E07402C0E0E4C0E08CFF
:1029E800828B838AF01290D0AC82E58124F8F5813D
:1029F800D005D006D0079004D4ECF0EC6003022A8E
:102A0800BDC005C006C0079004DEE0FBA3E0C40318
:102A180054F8CBC403CB6BCB54F8CB6BFA7C007F58
:102A280000C007C006C0057452C0E07402C0E0E4EC
:102A3800C0E0C003C002C004C007E50D2405F88645
:102A4800820886830886F0125778E58124F9F58193
:102A5800D005D006D007D007D006D0059017A5E03E
:102A6800700790F009E493604CC007C006C0059059
:102A780004DEE0C0E0A3E0C0E09004D6E0C0E0A33C
:102A8800E0C0E07410C0E074C1C0E07480C0E0121F
:102A9800AD47E58124F9F5819004DEE0C0E0A3E0CC
:102AA800C0E090025275F000121C1815811581D0F3
:102AB80005D006D0079004D8E02401F0A3E0340044
:102AC800F00229499004D6E02401F0A3E03400F094
:102AD80002285E9004D4E0F582850D81D00D22C0D5
:102AE8000D85810D05810581AD82AE83AFF090041F
:102AF800E5EDF0EEA3F0EFA3F074E1C0E07404C0DC
:102B0800E0E4C0E07408C0E0E4C0E07452C0E074DF
:102B180002C0E0E4C0E08D828E838FF0121F2BAFDD
:102B280082E58124F8F5819004E0EFF0EF601B74F2
:102B38001BC0E074C1C0E07480C0E012AD471581CD
:102B480015811581758200022F7212766A9004E150
:102B5800E0C0E0A3E0C0E07425C0E074C1C0E07448
:102B680080C0E012AD47E58124FBF5819004E1E0E7
:102B7800FEA3E09004E5E0C0E0A3E0C0E0A3E0C06D
:102B8800E0C00690025275F000121211E58124FC93
:102B9800F5819004E5E0FDA3E0FEA3E0FF74032DBA
:102BA800FDE43EFE8D828E838FF012AD80FD7F00A6
:102BB800C005C0077431C0E074C1C0E07480C0E0D3
:102BC80012AD47E58124FBF5819004E5E0FDA3E023
:102BD800FEA3E0FFE50D24FDF8E6C0E08D828E83BC
:102BE8008FF01220B0AF8215819004E0EFF0EF6013
:102BF8001B7439C0E074C1C0E07480C0E012AD47F6
:102C0800158115811581758200022F729004E5E007
:102C1800FDA3E0FEA3E0FF740A2DFDE43EFE8D82D5
:102C28008E838FF012AD80FD7F00C005C00774440D
:102C3800C0E074C1C0E07480C0E012AD47E58124F3
:102C4800FBF5819004E5E0FDA3E0FEA3E0FF740A34
:102C58002DFDE43EFE8D828E838FF0E50D24FDF878
:102C6800E612A78F9004E5E0FDA3E0FEA3E0FF7461
:102C7800E1C0E07404C0E0E4C0E07412C0E0E4C065
:102C8800E07452C0E07402C0E0E4C0E08D828E833C
:102C98008FF0121F2BAF82E58124F8F5819004E0B4
:102CA800EFF0EF601B7450C0E074C1C0E07480C0E6
:102CB800E012AD47158115811581758200022F72CA
:102CC8009004E1E0C0E0A3E0C0E0745EC0E074C13D
:102CD800C0E07480C0E012AD47E58124FBF5817443
:102CE8006DC0E074C1C0E07480C0E012AD471581CA
:102CF800158115819004E1E0C0E0A3E0C0E09002F6
:102D08005275F000121C18158115819004E1E0FE3F
:102D1800A3E09004E5E0C0E0A3E0C0E0A3E0C0E0E9
:102D2800C00690025275F000121211E58124FCF5DC
:102D3800819004E5E0FDA3E0FEA3E0FF74082DFA0E
:102D4800E43EFB8F048A828B838CF0A80D0812ADB9
:102D580080F6A312AD8008F674062DFAE43EFB8FC8
:102D6800048A828B838CF012AD80FAA312AD80FBAB
:102D780074042DFDE43EFE8D828E838FF012AD80AB
:102D8800FDA312AD80FEA80D08E6C0E008E6C0E08D
:102D9800C002C003C005C0067482C0E074C1C0E0B0
:102DA8007480C0E012AD47E58124F7F5819004E313
:102DB8007409F0E4A3F09004E5E0FDA3E0FEA3E0CD
:102DC800FF74E1C0E07404C0E0E4C0E07409C0E04E
:102DD800E4C0E07452C0E07402C0E0E4C0E08D8258
:102DE8008E838FF0121FEDAF82E58124F8F5819074
:102DF80004E0EFF0EF601B7498C0E074C1C0E074A9
:102E080080C0E012AD4715811581158175820002D9
:102E18002F729004E87452F07402A3F0E4A3F090C7
:102E2800025475F00012AD80FF90025575F0001243
:102E3800AD80FDE4FEFCEF4206EC42059004E3EEB3
:102E4800F0EDA3F0C3E49E74029D50099004E3E4FE
:102E5800F07402A3F09004E5E0FDA3E0FEA3E0FF18
:102E680074E1C0E07404C0E0E4C0E09004E3E0C0B2
:102E7800E0A3E0C0E07452C0E07402C0E0E4C0E047
:102E88008D828E838FF0121FEDAF82E58124F8F5D5
:102E9800819004E0EFF0EF601B74A3C0E074C1C040
:102EA800E07480C0E012AD471581158115817582E7
:102EB80000022F7274AFC0E074C1C0E07480C0E03B
:102EC80012AD471581158115819004E1E0C0E0A39A
:102ED800E0C0E090025275F000121C1815811581AF
:102EE8009004E5E0C0E0A3E0C0E0A3E0C0E0900407
:102EF800E1E0C0E0A3E0C0E090025275F0001214D7
:102F080028E58124FBF5819004E1E0C0E0A3E0C05E
:102F1800E074C4C0E074C1C0E07480C0E012AD4782
:102F2800E58124FBF581900257E0FF9004E5E0FC81
:102F3800A3E0FDA3E0FEC0078C828D838EF01221F2
:102F48003FAF8215819004E0EFF0EF601A74CFC0B4
:102F5800E074C1C0E07480C0E012AD4715811581EE
:102F680015817582008003758201850D81D00D223F
:102F7800C00D85810DAF82E50D24FDF8B6FF0CEF7D
:102F880075F005A49004EB04F08015EF75F005A426
:102F9800FFE50D24FDF8860674022E9004EB2FF051
:102FA8009004EBE0F582D00D22C00D85810DC08222
:102FB800E581241DF5819004F0E4F0A80D088682CF
:102FC800128B029004ECE4F09004EDF09004ECE035
:102FD800FEBE0A005017A80D08868212893E90008E
:102FE80001121AE09004ECE02401F080DF90006404
:102FF800121AE074FFC0E0A80D088682128B4715EC
:103008008174FFC0E0A80D088682122F78AE821561
:10301800819004F1EEF0A80D08E675F010A4248163
:10302800FC741635F0FD8C028D037F00C005C004CA
:10303800C0068A828B838FF0122AE7AF821581D06F
:1030480004D005EF70030237F58C828D837403F08A
:103058008C828D83A3A3E0FEBE0902800302380C94
:10306800C005C00474D9C0E074C1C0E07480C0E079
:1030780012AD47158115811581D004D0058C038DBB
:1030880006E50D2419F8A60308A606087600C0056B
:10309800C00474EEC0E07404C0E0E4C0E07409C089
:1030A800E0E4C0E07452C0E07402C0E0E4C0E0E5CF
:1030B8000D2419F886820886830886F01221BDAF90
:1030C80082E58124F8F581D004D0059004EDEFF075
:1030D800EF6032A80D088682C005C0041289A2D00C
:1030E80004D0058C828D837402F074E5C0E074C14D
:1030F800C0E07480C0E012AD471581158115817557
:10310800820002380F90025475F00012AD80FDFB6A
:103118007E00C005C003C00674F3C0E074C1C0E0FF
:103128007480C0E012AD47E58124FBF581D005ED40
:1031380024FB50027D04E50D2419F8740126FBE4F4
:103148000836FE0886078B828E838FF0ED12A78FD4
:103158009004ECE4F0A80D08E50D2406F9E675F0F6
:1031680040A4F709A7F0E50D2406F8E624A1FA081B
:10317800E63416FB9004ECE0FFC39D5052C002C039
:10318800038F030BC005C0027408C0E0C003E50D3F
:103198002419F886820886830886F01223A7AB8252
:1031A80015811581D002D0059004EDEBF0EBD0032A
:1031B800D00260129004ECE0C454F0FF2AF582E4D7
:1031C8003BF5837402F09004ECE02401F080A5E55F
:1031D8000D2419F8740D26FAE40836FB0886078AC8
:1031E800828B838FF012AD80FAA312AD80FBA312FD
:1031F800AD80FFC005E4C0E08A828B838FF0129D0A
:1032080011AB82AE83AFF0158174062BFBE43EFE52
:10321800E50D241CF8A60308A60608A607E50D2454
:103228001C8B828E838FF012AD80FB7F00C003C0A1
:10323800077400C0E074C2C0E07480C0E012AD47FB
:10324800E58124FBF5817420C0E0744EC0E074EE83
:10325800C0E07404C0E0E4C0E07452C0E07402C08E
:10326800E0E4C0E0E50D241CF88682088683088621
:10327800F01290D0AF82E58124F8F581D005900452
:10328800EDEFF0EF601B7416C0E074C2C0E074800C
:10329800C0E012AD4715811581158175820002388D
:1032A8000F900252E0FA7B00C005C003C002C002C2
:1032B800C0037428C0E074C2C0E07480C0E012ADDE
:1032C80047E58124FBF581D002D003D0059004ECBA
:1032D800E4F0E50D2406F8A90D0909E624A1F7088C
:1032E800E6341609F7A80D0808E50D2408F9E6F7ED
:1032F8000809E6F7A80D0808E50D2413F9E6F7080C
:1033080009E6F7A80D0808E50D2411F9E6F70809FC
:10331800E6F7A80D0808E50D2404F9E6F70809E61C
:10332800F79004ECE0FCC39D400302380CEC04FF6A
:103338008FF005F07F017E008006EF2FFFEE33FE51
:10334800D5F0F7EA5207EB5206EF4E70030237EB5F
:10335800C002C0038C027B00C005C003C002C002CB
:10336800C0037436C0E074C2C0E07480C0E012AD1F
:1033780047E58124FBF581900032121AE074FFC002
:10338800E0A80D088682128B471581D002D003E58C
:103398000D2415FCE50D240AF8A604087600087625
:1033A80040E50D240DF8E50D2417F6E50D240DF87C
:1033B80086037E007F409004ECE0FA0AC004C00354
:1033C800C002E50D240AF8E6C0E008E6C0E008E619
:1033D800C0E0C003C006C007C002E50D2419F88686
:1033E800820886830886F0122280AF82E58124F95C
:1033F800F581D002D003D004D0059004EDEFF0D0D1
:1034080003D002EF6026E50D2406F8E624A1FE08A5
:10341800E63416FD9004ECE0C454F0FF2EF582E487
:103428003DF5837402F075820002380FC005C004B0
:10343800C003C002E50D2415F8E6C0E008E6C0E0C8
:10344800E50D2417F8E6C0E008E6C0E07446C0E0E1
:1034580074C2C0E07480C0E012AD47E58124F9F57C
:1034680081D002D003D004D005E50D2417F8E6205A
:10347800E0030237EBE50D2415F8E620E0030237F8
:10348800EB9004ECE0FF7E00C005C004C003C0025E
:10349800C007C006745DC0E074C2C0E07480C0E0BC
:1034A80012AD47E58124FBF5819004ECE0FF0F7431
:1034B80010C0E0C007E50D2419F886820886830845
:1034C80086F012242CAF8215811581D002D003D04A
:1034D80004D0059004EDEFF0EF6026E50D2406F822
:1034E800E624A1FE08E63416FD9004ECE0C454F08E
:1034F800FF2EF582E43DF5837402F07582000238F0
:103508000F9004ECE0FF0FC005C004C003C00274B4
:1035180004C0E0C007E50D2419F8868208868308F0
:1035280086F01223A7AF8215811581D002D003D06F
:1035380004D0059004EDEFF0EF6026E50D2406F8C1
:10354800E624A1FE08E63416FD9004ECE0C454F02D
:10355800FF2EF582E43DF5837402F075820002388F
:103568000F900064C005C004C003C002121AE0D066
:1035780002D003D004D005E50D240DF8E50D240A8A
:10358800F9E6F7C002C003E50D240EF8A604087694
:1035980000087640E50D240AF886037E007F4090F7
:1035A80004ECE0FA0AC005C004C003C002E50D241B
:1035B8000EF8E6C0E008E6C0E008E6C0E0C003C0D8
:1035C80006C007C002E50D2419F88682088683081C
:1035D80086F0122280AF82E58124F9F581D002D0ED
:1035E80003D004D0059004EDEFF0D003D002EF60D3
:1035F80026E50D2406F8E624A1FE08E63416FD901B
:1036080004ECE0C454F0FF2EF582E43DF583740227
:10361800F075820002380F900014C005C004C00382
:10362800C002121AE0D002D003D004D005E50D2460
:1036380017F8E630E40302358BE50D2415F874100D
:1036480056FE7F00BE1005BF000280030237EBE57F
:103658000D2417F808E630E1429004ECE0C454F079
:10366800FFE50D2408F8EF26FFE40836FE740B2F5B
:10367800F582E43EF583E4F0C005C003C002746F30
:10368800C0E074C2C0E07480C0E012AD4715811577
:10369800811581D002D003D00580409004ECE0C4AD
:1036A80054F0FFA80D0808EF26FFE40836FE740B57
:1036B8002FF582E43EF5837401F0C005C003C00213
:1036C8007479C0E074C2C0E07480C0E012AD4715E0
:1036D8008115811581D002D003D005C002C00390A6
:1036E80004ECE0FF0FC005C003C0027414C0E0C0C2
:1036F80007E50D2419F886820886830886F01224C7
:103708002CAF82158115819004EDEFF09004ECE068
:10371800C0E0A80D088682128B4715819004ECE062
:10372800C0E0A80D088682122F78AF821581D002DA
:10373800D0039004F1EFF09004ECE0C454F0FEE5FF
:103748000D2413F8EE26FBE40836FE7A00C003C009
:1037580002C0078B828E838AF0122AE7AF82158116
:10376800D002D003D005D003D002EF603CC005C022
:1037780003C0027484C0E074C2C0E07480C0E01268
:10378800AD47158115811581D002D003D00590046D
:10379800ECE0C454F0FFE50D2404F8EF26F582E4CC
:1037A8000836F5837403F0803AC005C003C002747C
:1037B8008DC0E074C2C0E07480C0E012AD471581CE
:1037C80015811581D002D003D0059004ECE0C454D3
:1037D800F0FFE50D2411F8EF26F582E40836F583AD
:1037E8007402F09004ECE02401F0023329A80D08DB
:1037F8008682C005C0041289A2D004D0058C828DAF
:10380800837402F0758201850D81D00D229004F237
:10381800E4F09004F3F010D803023899E5DB30E3C4
:1038280019901681E0702FF5821289A29016817482
:1038380001F09004F37415F0801C901681E0FFBF2E
:10384800010040127582001289A29004F3E070060C
:103858009004F37416F0E5DB30E71A901691E070E7
:10386800307582011289A29016917401F09004F3C8
:103878007415F0801C901691E0FFBF01004012758E
:1038880082011289A29004F3E070069004F3741682
:10389800F09004F3E0F58222C00DE581F50D2404D3
:1038A800F581AD82AE83AFF09004FBEDF0EEA3F0AE
:1038B800EFA3F074022DFDE43EFE8D828E838FF01F
:1038C80012AD80FDBD0903023D819004F4E4F0903F
:1038D80004FBE0FDA3E0FEA3E0FF740C2DFAE43E38
:1038E800FB8F048A828B838CF012AD80FA9004F4EB
:1038F800E0FCC39A4003023D81740D2DFDE43EFEB9
:103908008D828E838FF012AD80FDA312AD80FEA351
:1039180012AD80FFC0048D828E838FF0129D11AD91
:1039280082AE83AFF01581A80D08A60508A6060883
:10393800A607A80D0886820886830886F012AD803F
:10394800FCBC03028003023D779004FBE0FAA3E08D
:10395800FBA3E0FC9004F4E0C0E0E4C0E0C0E0C0F9
:10396800E08A828B838CF012268FAC82E58124FC5E
:10397800F5819004F5ECF09004F4E0FC7B00C004C1
:10398800C0037498C0E074C2C0E07480C0E012AD97
:1039980047E58124FBF581A80D08740226FAE4089E
:1039A80036FB0886048A828B838CF012AD80FA7C01
:1039B80000C002C00474A7C0E074C2C0E07480C034
:1039C800E012AD47E58124FBF581A80D08740326B4
:1039D800FBE40836FA0886048B828A838CF012ADE1
:1039E80080FBA312AD80FCC3E49B74029C92004050
:1039F8000280047B007C029004FBE0FAA3E0FEA3B3
:103A0800E0FF74F7C0E07404C0E0E4C0E0C003C0A5
:103A1800047452C0E07402C0E0E4C0E09004F4E032
:103A2800C0E08A828E838FF01224B0AF82E58124B1
:103A3800F7F5819004F5EFF0EF60208F037C00C06C
:103A480003C00474BFC0E074C2C0E07480C0E01258
:103A5800AD47E58124FBF581023D819004F4E0FC4B
:103A68007B00C004C00374D2C0E074C2C0E074809C
:103A7800C0E012AD47E58124FBF5819004F7E0C072
:103A8800E0A3E0C0E090025275F000121C18158106
:103A9800158190167BE0701DA80D08740226FAE4C3
:103AA8000836FB0886048A828B838CF012AD80FA74
:103AB800BA0202802990167AE06003023C37A80D0A
:103AC80008740226FAE40836FB0886048A828B8387
:103AD8008CF012AD80FABA01028003023C37A80DBF
:103AE80008740126FAE40836FB0886048A828B8368
:103AF8008CF012AD80FABA01028003023C1F9004D8
:103B0800FBE0FAA3E0FBA3E0FC9004F4E0C0E08A49
:103B1800828B838CF0122603AC8215817B00C00453
:103B2800C00374F8C0E074C2C0E07480C0E012AD95
:103B380047E58124FBF5819004FBE0FAA3E0FBA3B1
:103B4800E0FCE4C0E0C0E09004F4E0C0E08A828BCE
:103B5800838CF012257C158115811581A80D0874B8
:103B68000226FAE40836FB0886048A828B838CF0E6
:103B780012AD80FABA02067B327C0080047B3F7C5F
:103B880000C003C004A80D08740226FAE40836FB36
:103B98000886048A828B838CF012AD80FABA0202FE
:103BA8008006D004D003800AD004D0037F737E1728
:103BB80080047F347E178F027F00A80D08E6C0E0DE
:103BC80008E6C0E008E6C0E0C003C0048A828E832D
:103BD8008FF0120A60E58124FBF5819004FBE0FD7B
:103BE800A3E0FEA3E0FF9004F4E0C0E08D828E83A2
:103BF8008FF0122603AF8215817E00C007C00674BD
:103C08000EC0E074C3C0E07480C0E012AD47E58127
:103C180024FBF581023D057412C0E074C3C0E07452
:103C280080C0E012AD47158115811581023D77905E
:103C380004FBE0FDA3E0FEA3E0FF9004F4E0C0E095
:103C48008D828E838FF0122603AF8215817E00C08D
:103C580007C0067420C0E074C3C0E07480C0E012DE
:103C6800AD47E58124FBF5819004FBE0FDA3E0FE70
:103C7800A3E0FF7401C0E0E4C0E09004F4E0C0E019
:103C88008D828E838FF012257C1581158115819088
:103C980004FBE0FDA3E0FEA3E0FF9004F4E0C0E035
:103CA8008D828E838FF0122603AF8215817E00C02D
:103CB80007C006740EC0E074C3C0E07480C0E01290
:103CC800AD47E58124FBF581A80D08E6C0E008E6CC
:103CD800C0E008E6C0E09004F7E0C0E0A3E0C0E080
:103CE80090025275F000120A60E58124FBF581A864
:103CF8000D0886820886830886F012073CA80D08FE
:103D0800740226FDE40836FE0886078D828E838FAE
:103D1800F012AD80FDBD0157120103AF82E50D24FD
:103D280004F8A607E50D2404FF7E007D409004FBFF
:103D3800E0FAA3E0FBA3E0FC7401C0E0E4C0E0C04B
:103D480007C006C0059004F4E0C0E08A828B838C2B
:103D5800F0122758E58124FAF5817438C0E074C35D
:103D6800C0E07480C0E012AD4715811581158190BF
:103D780004F4E02401F00238D7850D81D00D22C06B
:103D88000D85810DC082058105810581A80D08E694
:103D980075F010A42481FD741635F0FC7E009005A2
:103DA80001EDF0ECA3F0EEA3F08D828C838EF0127F
:103DB800AD80FBBB03028003023EE074022DFAE4EF
:103DC8003CFB8E078A828B838FF012AD80FABA098A
:103DD80002803174FFC0E0A80D088682128B471557
:103DE80081900501A80D0808E0F6A3E008F6A3E015
:103DF80008F6A80D080886820886830886F0123817
:103E0800A0023EE00DBD00010C8D828C838EF01265
:103E1800AD80FEA80D08E675F040A424A1FC741638
:103E280035F0FD7B00C3EB9E4003023EE0C006EB8D
:103E3800C454F02CFAE43DFEA80D0808A60208A612
:103E480006087600A80D0808900501E6F008E6A324
:103E5800F008E6A3F0A80D0808868208868308867D
:103E6800F012AD80FEBE03028004D0068066A80D65
:103E78000808740226FAE40836FE0886078A828E45
:103E8800838FF012AD80FABA0904D0068046D006B6
:103E9800C006C006C005C004C003C003A80D08863C
:103EA80082128B471581D003D004D005D006900527
:103EB80001E0FAA3E0FEA3E0FF8A828E838FF0C0C0
:103EC80006C005C004C0031238A0D003D004D00532
:103ED800D006D0060B023E2D850D81D00D229017FD
:103EE800A5E07005901730E4F07443C0E074C3C0D7
:103EF800E07480C0E012AD471581158115819000EE
:103F080096121AE01227EF1276411294007F008F62
:103F1800057E00C007C005C006745CC0E074C3C05D
:103F2800E07480C0E012AD47E58124FBF581D0073D
:103F38008F82C007122FB1D0078F82C007123D872A
:103F4800D0070FBF020040C77465C0E074C3C0E06B
:103F58007480C0E012AD4715811581158190173026
:103F68007401F022123815AF82900504EFF0BF15E6
:103F780003023EE622C00D85810DC08205810581C0
:103F88000581A80D08E675F010A42481FD74163586
:103F9800F0FC7E00900505EDF0ECA3F0EEA3F08DAB
:103FA800828C838EF012AD80FBBB0302800302403B
:103FB800D674022DFAE43CFB8E078A828B838FF03D
:103FC80012AD80FABA0902803174FFC0E0A80D086A
:103FD8008682128B471581900505A80D0808E0F622
:103FE800A3E008F6A3E008F6A80D0808868208866C
:103FF800830886F01228220240D60DBD00010C8DE0
:10400800828C838EF012AD80FEA80D08E675F04014
:10401800A424A1FC741635F0FD7B00C3EB9E40037D
:104028000240D6C006EBC454F02CFAE43DFEA80DBD
:104038000808A60208A606087600A80D0808900534
:1040480005E6F008E6A3F008E6A3F0A80D08088640
:10405800820886830886F012AD80FEBE03028004C3
:10406800D0068066A80D0808740226FAE40836FE11
:104078000886078A828E838FF012AD80FABA090407
:10408800D0068046D006C006C006C005C004C003DE
:10409800C003A80D088682128B471581D003D0046F
:1040A800D005D006900505E0FAA3E0FEA3E0FF8A5C
:1040B800828E838FF0C006C005C004C00312282278
:1040C800D003D004D005D006D0060B024023850DBE
:1040D80081D00D22C00D85810DC082C083C0F0E55E
:1040E800812404F581A80D08740D26FAE40836FB2E
:1040F800088604A80D08E50D2404F9740C26F7E4D5
:10410800083609F70809E6F7E50D2407F87600E50B
:104118000D2404F886820886830886F012AD80FE96
:10412800E50D2407F8C3E69E40030241EC8A828B22
:10413800838CF012AD80FDA312AD80FEA312AD807A
:10414800FFC004C003C002E50D2407F8E6C0E08DF7
:10415800828E838FF0129D11AD82AE83AFF01581F0
:10416800D002D003D004C002C003C0048D828E8365
:104178008FF012AD80FCBC03028008D004D003D0BD
:10418800028058D004D003D00274022DFDE43EFE14
:104198008D828E838FF012AD80FDBD013EE50D242A
:1041A800FDFF7E007D40C004C003C0027401C0E072
:1041B800E4C0E0C007C006C005E50D2407F8E6C066
:1041C800E0A80D0886820886830886F0122758E53D
:1041D8008124FAF581D002D003D004E50D2407F834
:1041E80006024117850D81D00D22C00DE581F50D20
:1041F8002406F581AF82A80D087600A80D08E6759B
:10420800F010A42481FC741635F0FB7D008C828BA1
:10421800838DF012AD80FABA03028003024357C0BF
:104228000774022CFAE43BFE8D078A828E838FF096
:1042380012AD80FABA0904D0078030C005C004C0A6
:104248000374FFC0E0A80D088682128B471581D041
:1042580003D004D005D007C007C0078C828B838D9C
:10426800F01240DC1581D0070243570CBC00010B4B
:104278008C828B838DF012AD80FCE50D2405F8A6A9
:1042880004087600A80D08E675F040A424A1FB7484
:104298001635F0FD7A00C003C0058A037D00E50DE0
:1042A8002405F8C3EB96ED64800886F063F08095EA
:1042B800F0D005D0034003024357EAC454F02BFE64
:1042C800E43DFCA80D0808A60608A604087600A880
:1042D8000D080886820886830886F012AD80FEBE27
:1042E8000369C003C005A80D0808740226FBE4088A
:1042F80036FD0886068B828D838EF012AD80FBBB5F
:104308000906D005D0038043D005D003C007C005F7
:10431800C003C002C002A80D088682128B4715810F
:10432800D002D003D005D007C007C005C003C00223
:10433800C007A80D080886820886830886F0124000
:10434800DC1581D002D003D005D0070A02429EA80E
:104358000D0806A80D08B602005003024203850D99
:1043680081D00D22123F6C901732E0600B9017320B
:10437800E4F0758200123F7D901733E0600B9017D0
:0A43880033E4F0758201023F7D224C
:10C105002530325820000A000A0A004925685820BF
:10C115004C25582D20006764642E6661696C0A0001
:10C12500676464206C656E3A25640A006D7073203F
:10C1350025640A0061646472206661696C0A0061A5
:10C14500646472206F6B2025640A006764646675F9
:10C155006C6C206661696C0A0067646466756C6C5A
:10C16500206F6B2025640A00446576696365204469
:10C17500657363726970746F72203A0A00307825AE
:10C1850030345820307825303458203078253034F4
:10C19500580A0067636431206661696C0A00676349
:10C1A500642032206661696C0A00436F6E666967B8
:10C1B5002044657363726970746F72203A0A006770
:10C1C5006364206F6B2025640A00737563206661C4
:10C1D500696C0A000A466F756E64206875620A000C
:10C1E5006875622064657363206572720A00256450
:10C1F50020706F7274206875620A00446F696E67FB
:10C20500206E6577207468696E67202D2025780A71
:10C21500006E657720656E756D2E206661696C65AB
:10C22500640A006E657720656E756D2E2025780A87
:10C2350000636865636B6E20706F72742025640AF5
:10C245000070732D203078253032582070632D20F2
:10C255003078253032580A00706F727420256420BA
:10C2650061747461636865640A006C6F77737065E7
:10C2750065640A0066756C6C73706565640A0065B3
:10C285006E756D2E4F4B0A00656E756D2E66616974
:10C295006C0A00496E746572666163652025783A9B
:10C2A5000A00496E7465726661636550726F746FDA
:10C2B500636F6C3A2025780D0A00726570206465FD
:10C2C500736372206661696C2025750A000A0A4944
:10C2D5006E746572666163652025687820526570A5
:10C2E5006F72742044657363726970746F72202D68
:10C2F500200A0073657420626F6F74206D6F64652A
:10C30500202D202578202D200025780A004E6F202D
:10C31500626F6F74206D6F64650A007365742072B7
:10C3250065706F7274206D6F6465202D20257820EF
:10C335002D20005365745265706F72740A00726522
:10C34500656E756D65726174696E6720616C6C20D0
:10C35500706F7274730A00706F72742025640A001E
:10C36500646F6E65207265656E756D657261746961
:04C375006E670A00E5
:03D43A00000000EF
:10C379000109050000000102020000000000010996
:10C389000600000001010200000000000101320066
:10C399000000010403020000000001013500000053
:10C3A9000105030200000000000000000000000079
:10C3B900000000000000010905000000000802005B
:10C3C9000000000001090600000000090200000049
:10C3D9000000000000000000000000000000000054
:10C3E9000109010000000004020000000000010929
:10C3F900020000000005020000000000010903001E
:10C40900000000060200000000000109040000000D
:10C419000007020000000000010907000000000AEF
:10C42900020000000000010908000000000B0200E2
:10C4390000000000010909000000002902000000B5
:10C44900000001090A0000000028020000000000A5
:10C4590001090B000000000C0200000000000109A6
:10C469000C000000000D02000000000001090D0091
:10C479000000000E02000000000001090E0000008B
:10C48900000F02000000000001090F000000001069
:10C499000200000000000109100000000011020064
:10C4A90000000000010130000000004F02C0000040
:10C4B90000000101300000000050014000000000B0
:10C4C900010131000000005102C00000000001011B
:10C4D9003100000000520140000000000101390054
:10C4E90000000052060000000000010139000000B0
:10C4F9000052060100000000010139000000004F50
:10C50900060100000000010139000000004F060289
:10C5190000000000010139000000004F060300007F
:10C52900000001013900000000510603000000006D
:10C53900010139000000005106040000000001015A
:10C549003900000000510605000000000101390012
:10C55900000000500605000000000101390000003C
:10C5690000500606000000000101390000000050DB
:10C57900060700000000010139000000005206070B
:10C5890000000000000000000000000000000000A2
:10C599000000000000000000000000002800002842
:10C5A9000000000000000000000000000000000082
:10C5B90000002C0000000000000000000057005699
:10C5C9003700271E1F2021222324252600000000D2
:10C5D9000000000405060708090A0B0C0D0E0F10D0
:10C5E9001112131415161718191A1B1C1D00000017
:10C5F9000000000405060708090A0B0C0D0E0F10B0
:10C609001112131415161718191A1B1C1D000000F6
:05C6190000000000001C
:10D43D0005010906A101050719E029E715002501D8
:10D44D007501950881029501750881019505750194
:10D45D00050819012905910295017503910195069C
:10D46D007508150025650507190029658100C0059A
:10D47D00010902A1010901A10005091901290515DB
:10D48D000025019505750181029501750381010541
:10D49D0001093009311581257F750895028106C076
:01D4AD00C0BE
:0700B300900607E4F0A3F042
:104392007F0090172EE4F0A3F0EF2408F582E434B6
:1043A20005F583E0FE700122BE4100402DEE24A5FA
:1043B200402890F00AE49370067C227DCC80047C35
:1043C2005B7DC97B808C828D838BF0C007C0061217
:1043D20069BCE582D006D00760D88E82C007C006CD
:1043E200126A8AD0068E82C006126AFDD006D007F3
:1043F200BE41004029EE24A5402490F00AE49370C7
:10440200067D3D7ECD80047DCB7ECA7C808D828EF2
:10441200838CF0C0071269BCE582D00760DC0F0212
:104422004394E5829017ABF022E5826023741EC0AC
:10443200E074C6C0E07480C0E07408C0E07405C0D7
:10444200E0E4C0E012AB77E58124FAF58102439201
:104452007423C0E074C6C0E07480C0E07408C0E099
:104462007405C0E0E4C0E012AB77E58124FAF5817F
:104472000243929017A9E0FF24F95003024BBCEFCC
:104482002F2F9044887302449D0244AB024BAB022F
:10449200460802470B02480E0248C69017A974014B
:1044A200F09017ABE4F0024BBC9017AAE0FFBF01FB
:1044B200030245907427C0E074C6C0E07480C0E077
:1044C2007408C0E07405C0E0E4C0E012AB77E58197
:1044D20024FAF5811243927439C0E074C6C0E074C4
:1044E20080C0E07408C0E07405C0E0E4C0E012AB34
:1044F20077E58124FAF5811243927441C0E074C6D3
:10450200C0E07480C0E07408C0E07405C0E0E4C09C
:10451200E012AB77E58124FAF581124392744BC025
:10452200E074C6C0E07480C0E07408C0E07405C0E6
:10453200E0E4C0E012AB77E58124FAF58112439200
:104542007454C0E074C6C0E07480C0E07408C0E077
:104552007405C0E0E4C0E012AB77E58124FAF5818E
:10456200124392745FC0E074C6C0E07480C0E0740D
:1045720008C0E07405C0E0E4C0E012AB77E5812436
:10458200FAF5811243929017A9E09017AAF09017BA
:10459200ABE0FFBF1E028017BF1F02801BBF2002BD
:1045A200801FBF21028023BF29028027024BBC90BB
:1045B20017A97403F0024BBC9017A97404F0024BC4
:1045C200BC9017A97405F0024BBC9017A97406F0B1
:1045D200024BBC7472C0E074C6C0E07480C0E07468
:1045E20008C0E07405C0E0E4C0E012AB77E58124C6
:1045F200FAF5811243929017A9E4F09017A6F09071
:1046020017AAF0024BBC9017AAE0FFBF03030246B1
:10461200BB747BC0E074C6C0E07480C0E07408C0A4
:10462200E07405C0E0E4C0E012AB77E58124FAF55E
:10463200811243927487C0E074C6C0E07480C0E007
:104642007408C0E07405C0E0E4C0E012AB77E58115
:1046520024FAF58112439290F004E493F582124415
:104662002B749AC0E074C6C0E07480C0E07408C0C5
:10467200E07405C0E0E4C0E012AB77E58124FAF50E
:104682008112439290F007E493F58212442B74ACAA
:10469200C0E074C6C0E07480C0E07408C0E0740575
:1046A200C0E0E4C0E012AB77E58124FAF581124361
:1046B200929017A9E09017AAF09017ABE0FFBF1EE7
:1046C20002800DBF1F028020BF29028033024BBC33
:1046D20090167AE0B40100E43390167AF012863133
:1046E2009017AAE4F0024BBC90167DE0B40100E4FE
:1046F2003390167DF01286319017AAE4F0024BBC7B
:104702009017A97401F0024BBC9017AAE0FFBF04F6
:10471200030247BE74BDC0E074C6C0E07480C0E04E
:104722007408C0E07405C0E0E4C0E012AB77E58134
:1047320024FAF5811243927487C0E074C6C0E07413
:1047420080C0E07408C0E07405C0E0E4C0E012ABD1
:1047520077E58124FAF58112439290F005E493F50E
:104762008212442B74C6C0E074C6C0E07480C0E0FC
:104772007408C0E07405C0E0E4C0E012AB77E581E4
:1047820024FAF58112439290F006E493F5821244E2
:104792002B74ACC0E074C6C0E07480C0E07408C082
:1047A200E07405C0E0E4C0E012AB77E58124FAF5DD
:1047B200811243929017A9E09017AAF09017ABE0EC
:1047C200FFBF1E02800DBF1F028020BF290280335F
:1047D200024BBC90167BE0B40100E43390167BF0F0
:1047E2001286319017AAE4F0024BBC90167CE0B41A
:1047F2000100E43390167CF01286319017AAE4F09F
:10480200024BBC9017A97401F0024BBC9017AAE0AE
:10481200FFBF0502807B74D9C0E074C6C0E074801B
:10482200C0E07408C0E07405C0E0E4C0E012AB77F9
:10483200E58124FAF58112439274EDC0E074C6C09A
:10484200E07480C0E07408C0E07405C0E0E4C0E039
:1048520012AB77E58124FAF58112439290F008E4D5
:1048620093F58212442B7400C0E074C7C0E07480D8
:10487200C0E07408C0E07405C0E0E4C0E012AB77A9
:10488200E58124FAF5811243929017A9E09017AAC4
:10489200F09017ABE0FFBF1E028008BF2902801B09
:1048A200024BBC90167EE0B40100E43390167EF019
:1048B2001286319017AAE4F0024BBC9017A974013A
:1048C200F0024BBC9017AAE0FFBF06030249B57481
:1048D20010C0E074C7C0E07480C0E07408C0E07427
:1048E20005C0E0E4C0E012AB77E58124FAF581125D
:1048F20043927420C0E074C7C0E07480C0E07408C2
:10490200C0E07405C0E0E4C0E012AB77E58124FAB0
:10491200F5811243927432C0E074C7C0E07480C063
:10492200E07408C0E07405C0E0E4C0E012AB77E5D3
:104932008124FAF5811243927443C0E074C7C0E047
:104942007480C0E07408C0E07405C0E0E4C0E01206
:10495200AB77E58124FAF5811243927458C0E07472
:10496200C7C0E07480C0E07408C0E07405C0E0E431
:10497200C0E012AB77E58124FAF58112439290F000
:1049820009E493F58212442B7400C0E074C7C0E0BE
:104992007480C0E07408C0E07405C0E0E4C0E012B6
:1049A200AB77E58124FAF5811243929017A9E09042
:1049B20017AAF09017ABE0FFBF1E028019BF1F02BB
:1049C2008018BF20028044BF2103024B8CBF290301
:1049D200024BA3024BBCC2A980FE7469C0E074C73B
:1049E200C0E07480C0E07408C0E07405C0E0E4C0B8
:1049F200E012AB77E58124FAF5811243929017A574
:104A02007401F09017A904F0024BBC901662E0FF0B
:104A12007E00C007C0067491C0E074C7C0E0748015
:104A2200C0E07408C0E07405C0E0E4C0E012AB77F7
:104A3200E58124F8F581124392901664E0FF7E002E
:104A4200C007C00674A4C0E074C7C0E07480C0E0B0
:104A52007408C0E07405C0E0E4C0E012AB77E58101
:104A620024F8F581124392901665E0FF7E00C0079C
:104A7200C00674B7C0E074C7C0E07480C0E07408B8
:104A8200C0E07405C0E0E4C0E012AB77E58124F831
:104A9200F581124392901666E0FF7E00C007C006C1
:104AA20074CAC0E074C7C0E07480C0E07408C0E09B
:104AB2007405C0E0E4C0E012AB77E58124F8F5812B
:104AC200124392901667E0FF7E00C007C00674DDB5
:104AD200C0E074C7C0E07480C0E07408C0E0740530
:104AE200C0E0E4C0E012AB77E58124F8F58112431F
:104AF2009274F0C0E074C7C0E07480C0E07408C073
:104B0200E07405C0E0E4C0E012AB77E58124FAF579
:104B1200811243927F00BF20005068EF540F70272C
:104B2200C0077401C0E074C8C0E07480C0E07408BB
:104B3200C0E07405C0E0E4C0E012AB77E58124FA7E
:104B4200F581124392D007EF2411F582E43406F581
:104B520083E0FE7D00C007C006C0057403C0E07498
:104B6200C8C0E07480C0E07408C0E07405C0E0E42E
:104B7200C0E012AB77E58124F8F581124392D007A9
:104B82000F80939017A9E4F0803090167FE0B40173
:104B920000E43390167FF01286319017AAE4F08079
:104BA200199017A97401F080119017ABE0FFBF298B
:104BB200099017A9E4F09017A5F09017ABE4F02242
:104BC2007F00E5B020E42E7F01900607E02401F08B
:104BD200A3E03400F0900607E0FDA3E0FEC3748872
:104BE2009D74139E5016C0078508828509831200A2
:104BF20011D0078007900607E4F0A3F09017ADE00C
:104C0200FDA3E0FE4D7010EF7001229017AD74010C
:104C12002DF0E43EA3F022C3E49D74808EF063F095
:104C22008095F05017C3ED9419EE64809480500C77
:104C32009017AD74012DF0E43EA3F022C3ED941958
:104C4200EE64809480404BED94D0EE648094875063
:104C520041EF70329017A9E0FCBC0202801D901651
:104C620080E0FC0C901680ECF0EC24FD50059016D0
:104C720080E4F012863190063AE4F09017AD74E7C2
:104C8200F074FFA3F0229017AD74012DF0E43EA35F
:104C9200F022BDD013BE07109017A67401F0901732
:104CA200AD2DF0E43EA3F022C374D09D74878EF044
:104CB20063F08095F0500EEF701A9017AD74E7F024
:104CC20074FFA3F022EE30E70B9017AD74012DF0C4
:054CD200E43EA3F02206
:10C61E005965730A004E6F0A000A0A4849446D6153
:10C62E006E2076312E312E340A0A00312E204B65C3
:10C63E00790A00322E204D6F7573650A00332E2055
:10C64E0047616D650A000A342E204164762E0A0A6F
:10C65E000045534320746F2065786974206D656EB4
:10C66E00750A0A00476F6F646279650A000A4B65A6
:10C67E0079626F6172640A0A00312E20416476611C
:10C68E006E63656420555342202D2000322E2038D3
:10C69E0031204B6579204D6F6465202D20000A45B1
:10C6AE0053432E204D61696E204D656E750A000A4A
:10C6BE004D6F7573650A0A00322E20496E74656CD3
:10C6CE006C696D6F757365202D20000A47616D656D
:10C6DE0020436F6E74726F6C6C6572730A0A003150
:10C6EE002E20557365206173204D6F757365202D57
:10C6FE0020000A455343206D61696E206D656E758D
:10C70E000A000A0A2D2D0A416476616E6365640A79
:10C71E000A00312E20466163746F72792052657360
:10C72E0065740A00322E204C6F672048494420441D
:10C73E006174610A00332E20505332206D6F757371
:10C74E0065207374617475730A00342E20536572FC
:10C75E0069616C204C6F67202D20004C6F676769F4
:10C76E006E672048494420446174612E20507265E2
:10C77E0073732045534320746F2073746F702E2E85
:10C78E002E0A0054797065202020202020202020A1
:10C79E00202025750A00526174652020202020205B
:10C7AE00202020202025750A005265736F6C757449
:10C7BE00696F6E202020202025750A005363616C5E
:10C7CE00696E67202020202020202025750A004435
:10C7DE00617461207265706F7274696E6720257561
:10C7EE000A000A436F6D6D616E6420627566666540
:0BC7FE00720A000A00253032582000AB
:0AD4AE00000000010000000400006F
:104CD7009017AFE0FEA3E0FFC3E49E74808FF063FC
:104CE700F08095F0500D9017AFE02401F0A3E03469
:104CF70000F0229017AFE0A3E030E7149017AFE081
:104D070024FFFEA3E034FFFF9017AFEEF0EFA3F010
:104D1700229017AFE0FEA3E0FF9017B2E0FCA3E0FC
:104D2700FDC3EC9EED64808FF063F08095F0500D2D
:104D3700C28C9017AF74FFF0A3F0D28C229017AFFC
:104D4700E0FEA3E0FF9017B4E0FCA3E0FDC3EE9CF8
:104D5700EF64808DF063F08095F0505890F00AE48E
:104D670093701F9017B1E075F003A4244FF5827478
:104D7700CE35F0F583E493FDA3E493FEA3E493FF1C
:104D8700801D9017B1E075F003A424EFF58274D06D
:104D970035F0F583E493FDA3E493FEA3E493FF8D3D
:104DA700828E838FF01269BCC28C9017AF74FFF0AC
:104DB700A3F0D28C22C00D85810DC082C083C0F0C4
:104DC700E581241AF581A80D08740526FAE408364A
:104DD700FB0886048A828B838CF012AD80FFBF05A7
:104DE700028003025153A80D08740126FDE408361A
:104DF700FE0886078D828E838FF0E50D240AF81250
:104E0700AD80F6A312AD8008F6A80D08740926FD3B
:104E1700E40836FE0886078D828E838FF012AD80F8
:104E2700FD7F00E50D240AF8ED26FDEF0836FF8D1E
:104E3700038F02A80D08740426FDE40836FE0886D1
:104E4700078D828E838FF0E50D241AF812AD80F658
:104E5700E50D240AA80D08E50D240FF9740326F7BC
:104E6700E4083609F70809E6F7E50D24FBF8E50D30
:104E77002407F9E6F70809E6F70809E6F7E50D2438
:104E870007F8E50D240CF9742726F7E4083609F727
:104E97000809E6F7E50D2407F8E50D2414F9E6F708
:104EA7000809E6F70809E6F7E50D2407F8E50D24F4
:104EB7001BF9740726F7E4083609F70809E6F7E54A
:104EC7000D240CF8E50D2404F9E6F70809E6F708C0
:104ED70009E6F7E50D240AF8C3E69B08E69A4003BE
:104EE70002571B7C00E50D240AF8860508E6C42353
:104EF700CDC423541F6DCD541FCD6DCDFFE50D24BB
:104F0700F8F8ED26FDEF0836FE0886078D828E83BA
:104F17008FF012AD80FDE50D240AF88607530707C9
:104F27008FF005F07E017F008006EE2EFEEF33FF47
:104F3700D5F0F7E50D2412F8A605087600E50D244F
:104F470012F8E6520608E65207EE4F60027C01E5CA
:104F57000D240FF886820886830886F012AD8060DC
:104F6700030250BCEC700302503FE50D241AF8E62B
:104F7700C423541FFDE50D241BF8E50D2417F9ED97
:104F870026F7E4083609F70809E6F7E50D241AF8C5
:104F9700860774075FF5F005F07401800225E0D5F8
:104FA700F0FBFFE50D2417F886820886830886F054
:104FB70012AD804207E50D2417F88682088683081C
:104FC70086F0EF12A78FE50D2404F8ED26FEE4081E
:104FD70036FD088604E50D241AF8740756FF8FF08E
:104FE70005F0E50D2412F87601087600188009E629
:104FF70025E0F608E633F618D5F0F48E828D838C1B
:10500700F012AD80FD7F00E50D2412F8E652050889
:10501700E65207ED4F600302513FE50D2414F87483
:105027000626FDE40836FE0886078D828E838FF0FC
:10503700740112A78F02513FE50D241AF8E6C42325
:10504700541FFFE50D240CF8EF26FEE40836FD0893
:105057008604E50D241AF8740756FF8FF005F0E56E
:105067000D2412F87601087600188009E625E0F687
:1050770008E633F618D5F0F48E828D838CF012ADE6
:1050870080FD7F00E50D2412F8E6520508E6520779
:10509700ED4F700302513FE50D2407F8740626FD16
:1050A700E40836FE0886078D828E838FF07401121E
:1050B700A78F02513FE50D241AF8E624FA4079E557
:1050C7000D241AF8E6269050D173806C8008801A58
:1050D700802C803E8050C003C002C004758200123D
:1050E7007E101581D002D003804EC003C002C004D9
:1050F700758201127E101581D002D003803AC00359
:10510700C002C004758202127E101581D002D0033E
:105117008026C003C002C004758203127E10158169
:10512700D002D0038012C003C002C00475820412EB
:105137007E101581D002D003E50D241AF806E50D7F
:10514700240AF806B600020806024EDAC002C003B7
:10515700C004A80D08740126FDE40836FE0886077A
:105167008D828E838FF012AD80FDA312AD808D04EA
:10517700C423CCC423541F6CCC541FCC6CCCFFE588
:105187000D24F8F8EC26FCEF0836FF088603A80D77
:1051970008E50D2417F9740A26F7E4083609F70815
:1051A70009E6F78C828F838BF012AD80FC74075D64
:1051B700F5F005F0EC8002C313D5F0FBFCA80D0851
:1051C700740826FDE40836FE0886078D828E838FD5
:1051D700F012AD80FD90C851935204E50D2417F8E5
:1051E70086820886830886F0EC12A78FA80D08E54B
:1051F7000D2404F9740326F7E4083609F70809E6CD
:10520700F7E50D2404F886820886830886F012AD38
:1052170080D004D003D002701FE50D24FBF886056B
:1052270008860608860774062DFDE43EFE8D828EED
:10523700838FF0740112A78F8A828B838CF012AD53
:1052470080FFE4BF020104FE603CE50D2417F886E9
:10525700820886830886F012AD80FDA80D087406C3
:1052670026FAE40836FB0886048A828B838CF012C0
:10527700AD80FAA312AD80FB7C00C3EA9DEB9C5086
:1052870005D20002530CBF013BE50D2417F88682B7
:105297000886830886F012AD80FDA80D08740626DF
:1052A700FAE40836FB0886048A828B838CF012ADF9
:1052B70080FAA312AD80FB7C00C3ED9AEC9B5004EF
:1052C700D2008041BF063CE50D2417F88682088688
:1052D700830886F012AD80FDA80D08740626FAE44F
:1052E7000836FB0886048A828B838CF012AD80FA1D
:1052F700A312AD80FB7C00EDB50208ECB50304D228
:10530700008002C200E50D2404F88682088683081F
:1053170086F012AD80FDBD0103ED8001E4FC700352
:105327000253FEEE70030253FEA80D08740426FA1A
:10533700E40836FB0886068A828B838EF012AD80DE
:10534700FE24FA500302571BEE2E2E90535673027B
:10535700571B0253680253860253A40253C20253D7
